:100000000C94D90E0C940A0F0C940A0F0C940A0F3E
:100010000C940A0F0C940A0F0C940A0F0C940A0FFC
:100020000C940A0F0C940A0F0C940A0F0C940A0FEC
:100030000C940A0F0C94D4610C940A0F0C940A0FC0
:100040000C940A0F0C947C2D0C940A0F0C940A0F3C
:100050000C940A0F0C940A0F0C9440280C945CA585
:100060000C940A0F0C9406630C94DC620C940A0F37
:100070000C940A0F0C940A0F0C940A0F0C940A0F9C
:100080000C94448E0C940A0F0C940A0F0C940A0FD3
:100090000C94B2620C9488620C940A0F0C948D77C5
:1000A0000C940A0F0C940A0F0C94168E0C940A0FE1
:1000B0000C940A0F0C940A0F0C940A0F0C94E88D00
:1000C0000C940A0F0C940A0F0C940A0F0C945E62A5
:1000D0000C9434620C940A0F0C940A0F0C940A0FBF
:1000E0000C940A0FD01FE81FEB1FFD1F0F202120CB
:1000F000242036202E27262235278E2795279C2739
:10010000A327AA27B127662787273C275F274A27E7
:10011000512758274327BD27C427CE27D827D2AC3D
:10012000E5AC26ADDDAEF2AE0AAFA5AF74B074B0EB
:1001300060B09728A528FE280129042907290A2943
:100140000D2910291329162919292329B7A3BAA380
:10015000A9A3ADA3B3A3F1A3BEA3C2A3C8A3CCA379
:10016000D0A3D6A3DAA3DEA3F1A3E4A3E8A3ECA370
:1001700057A45CA461A46BA475A4EEA47FA487A477
:100180008FA499A4A3A4ADA4BCA4C6A4EEA4D0A497
:10019000DAA4E4A4036EDB363D9A9999993DABAAA3
:1001A000AA2A3E000000803F084AD73B3BCE016EA2
:1001B00084BCBFFDC12F3D6C74319ABD56833DDABE
:1001C0003D00C77F11BED9E4BB4C3E916BAAAABECD
:1001D000000000803F072C7AA5BA6CC590DA3B93EB
:1001E00065FC8BBC53F810FD3C5692834DBD879D3A
:1001F0003AB63DCBC9BF5BBE73DA0FC93F05A84C09
:10020000CDB2D44EB93836A9020C50B991868808BF
:100210003CA6AAAA2ABE000000803F000C947D5490
:100220000C9412340C9416520C9428340C9499A407
:100230000C9472350C947FA40C94C44F0C94AA5166
:100240000C94A9A30C9460340C94D01F0C941E340D
:100250000C9435530C94BF4F0C9450550C9461A4DE
:100260000C941B550C94F2AE0C9404290C947760FA
:100270000C94D0A40C9495730C94C74F0C94363402
:100280000C94D6550C943C270C9434340C94E5AC67
:100290000C94C24F0C9424200C94BE6B0C94C6504A
:1002A0000C946A530C94DC4F0C940D290C94132974
:1002B0000C94D6A30C94F04F0C94FD1F0C94A13316
:1002C0000C9475A40C9471330C949C530C94C42717
:1002D0000C94D84F0C9414340C94DEA30C94F85165
:1002E0000C94DDAE0C9497280C9451270C94952710
:1002F0000C94DB4F0C94E0640C945CA40C941929CE
:100300000C94A1340C9466270C949C270C94DA4F1F
:100310000C94117A0C94C34F0C94A5280C94E753B9
:100320000C9440520C9458270C9416290C94B75FE7
:100330000C941F340C9433340C94A3A40C94BAA3DF
:100340000C9401290C940F200C9443270C94B3A314
:100350000C948E270C94B5340C94AB340C94C54F8C
:100360000C94AA270C940A600C94D24F0C94083475
:100370000C9437340C945F270C94E81F0C946A3566
:100380000C943F340C9413340C9441730C94C14F6F
:100390000C946BA40C943E6A0C9407290C9407737C
:1003A0000C94BD270C941D340C9421200C94D04F38
:1003B0000C9440340C948FA40C94CCA30C94E64F72
:1003C0000C9461510C949E790C9408360C94FE2880
:1003D0000C94C2A30C9426AD0C94ADA40C94BE60F6
:1003E0000C9418610C9483340C94E8A30C94F236AA
:1003F0000C94BD350C94BEA30C94667A0C94A5AFF6
:100400000C947E530C94E74F0C9418510C94DAA47E
:100410000C944A270C94BCA40C940C520C942F6B93
:100420000C94D94F0C9457A40C9426220C947D3331
:100430000C942A340C94EB1F0C94C8A30C949533A1
:100440000C940AAF0C9438340C94CE270C9474B0EE
:100450000C94D14F0C94F1A30C94DF4F0C9408B57D
:100460000C9421340C94ADA30C94D0A30C94A3272A
:100470000C9404350C9487270C9442730C94D95532
:100480000C9402520C9460B00C94B7A30C94EF4FF0
:100490000C94E4A40C9423290C9452360C94E4A3F9
:1004A0000C94C04F0C9410290C94AD330C946C3404
:1004B0000C94DAA30C94CE500C9420340C94C6A463
:1004C0000C9411610C94ECA30C948B6A0C9407347B
:1004D0000C94D2AC0C949D790C9487A40C940A29AA
:1004E0000C9436200C94FB5F0C9435270C941E6002
:1004F0000C94BE4F0C94F4380C94A3360C94353401
:100500000C94E26A0C9432540C948B550C94E84F82
:100510000C9457340C9427340C94E04F0C94C3582B
:100520000C9465730C94B1270C944B340C94D8271D
:100530000C9429340C9489330C9451730C94C64F49
:100540000C9439340C94EEA40C942E270C9409349A
:100550000C942C600C94EE4F0C94DD4F0C94DE4FF9
:100560002569730025696D20256973002569682058
:1005700025696D2025697300256964202569682037
:1005800025696D2025697300256979202569642016
:100590002569682025696D20256973005072696E90
:1005A000742074696D653A20004B494C4C45442ECB
:1005B00020006F6B004649524D574152455F4E41F6
:1005C0004D453A4D61726C696E20312E312E302DC1
:1005D00052433720284769746875622920534F5564
:1005E0005243455F434F44455F55524C3A687474DB
:1005F00070733A2F2F6769746875622E636F6D2F61
:100600004D61726C696E4669726D776172652F4DCE
:1006100061726C696E2050524F544F434F4C5F567D
:10062000455253494F4E3A312E30204D41434849AF
:100630004E455F545950453A3344205072696E74A8
:1006400065722045585452554445525F434F554EAC
:10065000543A3120555549443A63656465326132F4
:10066000662D343161322D343734382D39623132D0
:100670002D6335356336326633363766660A007A5F
:100680005F6D696E3A2000795F6D696E3A2000787F
:100690005F6D696E3A20005265706F7274696E67A3
:1006A00020656E6473746F70207374617475730A5F
:1006B00000546F6F206661722066726F6D207265E4
:1006C000666572656E636520706F696E740A0000FE
:1006D00000AFC30000AFC30000AFC34163746976CD
:1006E000652045787472756465723A2000220A00AC
:1006F000556E6B6E6F776E20636F6D6D616E643AD1
:100700002022004B494C4C45442E2000202D2049EE
:100710006E76616C696420657874727564657220A8
:100720006E756D62657220210A002020506C616E2A
:100730006E657242756666657242797465733A20B9
:10074000002046726565204D656D6F72793A200014
:100750004F637420323520323031370A00436F6DD9
:1007600070696C65643A2000286E6F6E652C206499
:10077000656661756C7420636F6E666967290A002F
:10078000207C20417574686F723A20003230313617
:100790002D30372D33312031323A303000204C614A
:1007A000737420557064617465643A200020312EA2
:1007B000312E302D5243370A004D61726C696E0044
:1007C00020536F6674776172652052657365740A91
:1007D00000205761746368646F67205265736574A5
:1007E0000A002042726F776E206F75742052657315
:1007F00065740A002045787465726E616C205265DC
:100800007365740A00506F77657255700A007374CF
:100810006172740A00205A3A0020593A0020583A6E
:1008200000656E6473746F7073206869743A200099
:100830006563686F3A0024F4D43050C38E20C2A29E
:100840004017828B7011127A910D816CD90AA861C0
:10085000E108C7586607615143061E4B5D05C14557
:10086000A7041A411104093D980371393103403638
:10087000DB0265339102D4305402802E1D02632CBA
:10088000EE01752AC501B028A001102781018F252E
:1008900064012B244B01E0223401AC211F018D2087
:1008A0000D01801FFC00841EED00971DDF00B81CA9
:1008B000D200E61BC600201BBC00641AB200B219AD
:1008C000A8000A19A0006A189900D11791004017D2
:1008D0008B00B516840031167E00B31579003A15E9
:1008E0007300C7146F0058146A00EE136600881373
:1008F000630025135E00C7125B006C1257001512CF
:100900005400C111510070114F0021114B00D6103D
:1009100049008D1047004610440002104200C00FED
:100920004000800F3E00420F3C00060F3B00CB0E04
:100930003800930E37005C0E3500270E3400F30D9F
:100940003200C10D3100900D3000600D2E00320DCF
:100950002D00050D2C00D90C2B00AE0C2900850CA8
:1009600029005C0C2700350C27000E0C2600E80B34
:100970002400C40B2400A00B23007D0B23005A0B82
:100980002100390B2100180B2000F80A1F00D90A9A
:100990001E00BB0A1E009D0A1D00800A1D00630A7E
:1009A0001C00470A1B002C0A1B00110A1A00F70939
:1009B0001A00DD091900C4091900AB0919009209D0
:1009C00017007B091800630917004C091600360947
:1009D0001600200916000A091500F5081500E008A0
:1009E0001400CC081400B8081400A40814009008DF
:1009F00013007D0812006B08130058081200460807
:100A00001200340811002308110012081100010817
:100A10001100F0071000E0071000D0071000C00719
:100A20001000B0070F00A107100091070E00830708
:100A30000F0074070F0065070E0057070E004907E7
:100A40000E003B070D002E070E0020070D001307B8
:100A50000D0006070D00F9060C00ED060D00E0067E
:100A60000C00D4060C00C8060C00BC060C00B00636
:100A70000C00A4060B0099060C008D060B008206E4
:100A80000B0077060B006C060B0061060A00570688
:100A90000B004C060A0042060A0038060A002E0621
:100AA0000A0024060A001A060A00100609000706B2
:100AB0000A00FD050900F4050900EB050900E2053F
:100AC0000900D9050900D0050900C7050900BE05C0
:100AD0000900B5050800AD050800A50509009C053D
:100AE0000800940508008C050800840508007C05B2
:100AF0000800740508006C050700650508005D0521
:100B00000700560508004E05070047050700400589
:100B1000080038050700310507002A0507002305EE
:100B200007001C050600160507000F05070008054D
:100B3000060002050700FB040600F5040700EE04AA
:100B40000600E8040600E2040700DB040600D50402
:100B50000600CF040600C9040600C3040600BD0455
:100B60000600B7040600B1040500AC040600A604A4
:100B70000600A00405009B040600950405009004EF
:100B800006008A04050085040500800406007A0436
:100B9000050075040500700405006B04050066047B
:100BA0000500610405005C040500570405005204BB
:100BB00005004D04050048040500430405003E04FB
:100BC00004003A04050035040500300404002C0438
:100BD000050027040400230405001E0404001A0471
:100BE000040016040500110404000D0404000904A7
:100BF00005000404040000040400FC030400F803DE
:100C00000400F4030400F0030400EC030400E80310
:100C10000400E4030400E0030400DC030400D80340
:100C20000400D4030400D0030400CC030400C80370
:100C30000300C503030024F404D9201BC40C5C0E7C
:100C40009804C4095F0265077101F405F900FB040B
:100C5000B30048048700C10369005803550003032B
:100C60004500BE023A008402310053022A002902E4
:100C7000250004022000E4011C00C8011900AF0196
:100C80001700980114008401130071011000610124
:100C9000100051010E0043010D0036010B002B0125
:100CA0000B0020010B00150109000C0109000301D4
:100CB0000800FB000800F3000800EB000700E40058
:100CC0000600DE000600D8000600D2000600CC00B8
:100CD0000500C7000500C2000500BD000400B90002
:100CE0000400B5000400B1000400AD000400A90038
:100CF0000400A5000300A20003009F0004009B0065
:100D00000300980003009500020093000300900088
:100D100003008D0002008B000300880002008600A3
:100D2000020084000300810002007F0002007D00B9
:100D300002007B00020079000200770001007600CB
:100D400002007400020072000100710002006F00D6
:100D500002006D0001006C0002006A0001006900E1
:100D600002006700010066000100650001006400E8
:100D700002006200010061000100600001005F00EC
:100D800002005D0001005C0001005B0001005A00F0
:100D900001005900010058000100570001005600F1
:100DA00001005500010054000100530000005300F1
:100DB00001005200010051000100500001004F00ED
:100DC00001004E0000004E0001004D0001004C00EB
:100DD00001004B0000004B0001004A0001004900E7
:100DE00001004800000048000100470001004600E3
:100DF00000004600010045000000450001004400DD
:100E000001004300000043000100420000004200D6
:100E100001004100000041000100400001003F00CE
:100E200000003F0001003E0000003E0001003D00C8
:100E300000003D0001003C0000003C0000003C00C0
:100E400001003B0000003B0001003A0000003A00B6
:100E500001003900000039000100380000003800AE
:100E600000003800010037000000370001003600A4
:100E7000000036000000360001003500000035009B
:100E80000000350001003400000034000000340090
:100E90000100330000003300000033000100320085
:100EA000000032000000320001003100000031007B
:100EB0000000310001003000000030000000300070
:100EC00001002F0000002F0000002F0000002F0065
:100ED00001002E0000002E0000002E0001002D0059
:100EE00000002D0000002D0000002D0001002C004E
:100EF00000002C0000002C0000002C0001002B0042
:100F000000002B0000002B0000002B0001002A0035
:100F100000002A0000002A0000002A000100290029
:100F2000000029000000290000002900000029001D
:100F30000100280000002800000028000000280010
:100F40000000280001002700000027000000270003
:100F500000002700000027000100260000002600F6
:100F600000002600000026000000260001002500E9
:100F700000002500000025000000250000002500DD
:100F800000002500010024000000240000002400CF
:100F900000002400000024000100230000002300C2
:100FA00000002300000023000000230000002300B5
:100FB00000002300010022000000220000002200A7
:100FC0000000220000002200000022000100210099
:100FD000000021000000210000002100000021008D
:100FE000000021000000210001002000000020007E
:100FF0000000200000002000000020000000200071
:10100000000020000000200001001F0000001F0061
:1010100000001F0000001F0000001F0000001F0054
:1010200000001F0001001E0000001E0000001E0046
:1010300000001E000000544845524D414C205255BE
:101040004E4157415900546865726D616C2052756C
:101050006E617761790048656174696E67206661C9
:10106000696C65640048656174696E6720666169D2
:101070006C6564004572723A204D415854454D509C
:10108000004D415854454D50207472696767657230
:101090006564004572723A204D494E54454D5000EA
:1010A0004D494E54454D50207472696767657265AD
:1010B000640020496E76616C69642065787472758D
:1010C00064657220000000AF430000AF430000AF32
:1010D000430000AFC30000AFC30000AFC320746F74
:1010E0006F206C6F6E6720657874727573696F6EB0
:1010F0002070726576656E7465640A0020636F6C9B
:101100006420657874727573696F6E20707265768D
:10111000656E7465640A0020403A00202F00205458
:101120003A003F0A0020573A0070012C0190012735
:1011300001B0012201C0011D01F0011801100213CC
:101140000130020E016002090190020401C002FF99
:10115000000003FA004003F5008003F000D003EB29
:10116000002004E6007004E100E004DC004005D744
:1011700000C005D2004006CD00D006C8008007C3DD
:10118000003008BE00F008B900C009B400B00AAFD2
:1011900000B00BAA00D00CA500000EA000500F9BC1
:1011A00000C01096005012910000148C00C01587EA
:1011B00000B0178200B0197D00D01B7800001E73AC
:1011C0000040206E0090226900F024640040275FF8
:1011D0000090295A00E02B5500102E500020304B73
:1011E0000010324600E033410090353C00103737A4
:1011F0000070383200A0392D00B03A2800A03B23FF
:1012000000603C1E00103D1900903D1400103E0F80
:1012100000703E0A00C03E0500003F0000010210C1
:101220002020080810204010204080020102010800
:1012300004020101020408102040808040201008B0
:101240000402018004020180402010080402010809
:101250000402010102040810204080010204081069
:1012600020408000002200250028002B002E0031A5
:1012700000340002010000050108010B010505050D
:1012800005070508080808020202020A0A080804FD
:10129000040404010101010101010103030303032B
:1012A000030303040707070C0C0C0C0C0C0C0C02BA
:1012B00002020206060606060606060B0B0B0B0BC1
:1012C0000B0B0B0248617264636F646564204465B4
:1012D0006661756C742053657474696E6773204C15
:1012E0006F616465640A0020204D32303020443044
:1012F0000A0020204D3230302044002044697361C0
:10130000626C65640A0046696C616D656E74207379
:10131000657474696E67733A0020440020490020A8
:10132000204D33303120500050494420736574748F
:10133000696E67733A0A00205A0020590020204D38
:10134000323036205800486F6D65206F66667365D1
:101350007420286D6D290A00204500205A0020586D
:101360000020420020540020204D32303520530010
:10137000416476616E636564207661726961626C56
:1013800065733A20533D4D696E20666565647261F0
:10139000746520286D6D2F73292C20543D4D696E86
:1013A0002074726176656C2066656564726174652F
:1013B00020286D6D2F73292C20423D6D696E696D5B
:1013C000756D207365676D656E742074696D652039
:1013D000286D73292C20583D6D6178696D756D20DD
:1013E0005859206A65726B20286D6D2F73292C2047
:1013F000205A3D6D6178696D756D205A206A65725D
:101400006B20286D6D2F73292C2020453D6D617850
:10141000696D756D2045206A65726B20286D6D2F92
:1014200073290A0020540020520020204D3230340D
:10143000205000416363656C65726174696F6E73FF
:101440003A20503D7072696E74696E672C20523D6F
:101450007265747261637420616E6420543D7472AD
:101460006176656C0A00204500205A002059002052
:10147000204D3230312058004D6178696D756D20F6
:10148000416363656C65726174696F6E20286D6D70
:101490002F7332293A0A00204500205A00205900B3
:1014A00020204D3230332058004D6178696D756DC4
:1014B0002066656564726174657320286D6D2F7395
:1014C000293A0A00204500205A0020590020204DCA
:1014D000393220580053746570732070657220751E
:1014E0006E69743A0A0000002000230026002900DB
:1014F0002C002F0032000001000003010601090149
:1015000000000A0B02090C0D0E080703040100007D
:1015100000000000000000000000000000000000CB
:101520000000000000000000000000001211100088
:1015300000000000000000000000000000000000AB
:101540000000000000002C2073797374656D207317
:10155000746F7070656421204865617465725F49BD
:10156000443A20004572726F723A00220A00656E9A
:101570007175657565696E672022004E6F204C6934
:101580006E65204E756D62657220776974682063A0
:101590006865636B73756D2C204C617374204C69A6
:1015A0006E653A20004B494C4C45442E2000507249
:1015B000696E7465722073746F70706564206475F1
:1015C0006520746F206572726F72732E2046697881
:1015D00020746865206572726F7220616E64207578
:1015E0007365204D39393920746F207265737461C9
:1015F00072742E202854656D706572617475726501
:101600002069732072657365742E20536574206998
:101610007420616674657220726573746172746996
:101620006E67290A004E6F20436865636B73756DA2
:101630002077697468206C696E65206E756D6265CF
:10164000722C204C617374204C696E653A200063E3
:101650006865636B73756D206D69736D6174636824
:101660002C204C617374204C696E653A20004C69E3
:101670006E65204E756D626572206973206E6F74A1
:10168000204C617374204C696E65204E756D6265E7
:10169000722B312C204C617374204C696E653A209A
:1016A000004D31313000434F4D4D554E494341546B
:1016B000494F4E0044525952554E004552524F52D6
:1016C0005300494E464F004543484F00C716C216C7
:1016D000BB16B416A6166F66660044454255473AD7
:1016E00000205A3A0020593A0020436F756E74204A
:1016F000583A200020453A00205A3A0020593A0032
:10170000583A0053657474696E6720547261766547
:101710006C20416363656C65726174696F6E3A2019
:101720000053657474696E672052657472616374E6
:1017300020416363656C65726174696F6E3A200065
:1017400053657474696E67205072696E74204163CA
:1017500063656C65726174696F6E3A2000536574DD
:1017600074696E67205072696E7420616E642054D3
:10177000726176656C20416363656C657261746942
:101780006F6E3A20003A200020536572766F200079
:1017900020643A0020693A0020703A0043290A0088
:1017A00061626C656420286D696E2074656D7020BF
:1017B00000436F6C64206578747275646573206192
:1017C0007265200023646566696E65202044454685
:1017D00041554C545F4B64200023646566696E6517
:1017E000202044454641554C545F4B6920002364FA
:1017F0006566696E65202044454641554C545F4BF3
:10180000702000504944204175746F74756E6520D6
:1018100066696E6973686564212050757420746808
:1018200065206C617374204B702C204B6920616EB5
:1018300064204B6420636F6E7374616E74732066F2
:10184000726F6D2062656C6F7720696E746F2043D4
:101850006F6E66696775726174696F6E2E680A00D3
:10186000504944204175746F74756E6520666169D6
:101870006C6564212074696D656F75740A00504948
:1018800044204175746F74756E65206661696C657E
:1018900064212054656D7065726174757265207481
:1018A0006F6F20686967680A00204B643A20002047
:1018B0004B693A2000204B703A200020436C617342
:1018C00073696320504944200A002054753A20006F
:1018D000204B753A2000206D61783A2000206D6918
:1018E0006E3A200020643A200020626961733A2039
:1018F0000020746F6F206C6F6E672065787472754E
:1019000073696F6E2070726576656E7465640A0027
:1019100020636F6C6420657874727573696F6E20D4
:1019200070726576656E7465640A00526573656EE3
:10193000643A20006F6B004B494C4C45442E20000C
:101940005072696E7465722068616C7465642E20D3
:101950006B696C6C28292063616C6C6564210A00DA
:10196000000000000000000000005F000000000018
:10197000000007000700000000147F147F1400001F
:1019800000242A7F2A12000000231308646200004A
:1019900000364955225000000000050300000000F9
:1019A000001C2241000000000041221C0000000039
:1019B00000082A1C2A0800000008083E0808000049
:1019C00000A06000000000000008080808080000EF
:1019D0000060600000000000002010080402000009
:1019E000003E5149453E00000000427F400000009B
:1019F0000062514949460000002241494936000031
:101A0000001814127F1000000027454545390000DA
:101A1000003C4A49493000000001710905030000FB
:101A2000003649494936000000064949291E000090
:101A300000003636000000000000AC6C0000000022
:101A400000081422410000000014141414140000B3
:101A500000412214080000000002015109060000A4
:101A600000324979413E0000007E0909097E0000EC
:101A7000007F494949360000003E414141220000B3
:101A8000007F4141221C0000007F4949494100007C
:101A9000007F090909010000003E41415172000028
:101AA000007F0808087F000000417F41000000001F
:101AB000002040413F010000007F08142241000047
:101AC000007F404040400000007F020C027F000089
:101AD000007F0408107F0000003E4141413E0000AD
:101AE000007F090909060000003E4151215E000007
:101AF000007F0919294600000026494949320000A3
:101B00000001017F01010000003F4040403F000014
:101B1000001F2040201F0000003F4038403F0000D1
:101B20000063140814630000000304780403000039
:101B30000061514945430000007F41410000000021
:101B400000020408102000000041417F0000000056
:101B500000040201020400000080808080800000F8
:101B600000010204000000000020545454780000DA
:101B7000007F4844443800000038444428000000F6
:101B800000384444487F0000003854545418000082
:101B900000087E09020000000018A4A4A47C000034
:101BA000007F08040478000000007D0000000000B1
:101BB0000080847D00000000007F102844000000A9
:101BC00000417F4000000000007C04180478000001
:101BD000007C08047C000000003844443800000009
:101BE00000FC24241800000000182424FC0000003D
:101BF00000007C0804000000004854542400000049
:101C000000047F4400000000003C40407C000000D5
:101C1000001C2040201C0000003C4030403C0000E4
:101C20000044281028440000001CA0A07C000000F4
:101C3000004464544C440000000836410000000099
:101C400000007F0000000000004136080000000096
:101C5000000201010201000000020505020000006F
:101C600000002100240027002A002D00300033004E
:101C700001010000040107010A014E414E494E498D
:101C80005459494E46CDCCCC3D0AD7233C17B7D149
:101C90003877CC2B329595E6241FB14F0A000020EF
:101CA000410000C84200401C4620BCBE4CCA1B0E6E
:101CB0005AAEC59D7400407A10F35A00A0724E18B7
:101CC000090010A5D4E80000E87648170000E40BEE
:101CD00054020000CA9A3B000000E1F505000080B4
:101CE000969800000040420F000000A0860100000E
:101CF00000102700000000E803000000006400005E
:101D00000000000A00000000000100000000002C9C
:101D100076D888DC674F0823DFC1DFAE59E1B1B761
:101D200096E5E3E453C63AE651997696E8E6C2842E
:101D300026EB898C9B62ED407C6FFCEFBC9C9F4046
:101D4000F2BAA56FA5F490055A2AF75C936B6CF96B
:101D5000676DC11BFCE0E40D47FEF520E6B500D041
:101D6000ED902E0300943577050080841E08000056
:101D7000204E0A000000C80C333333330F986E1224
:101D8000831141EF8D2114893BE65516CFFEE6DB2A
:101D900018D1844B381BF77C1D901DA4BBE4242074
:101DA0003284725E228100C9F124ECA1E53D270056
:101DB00008B511241FBECFEFD1E2DEBFCDBF00E0DA
:101DC0000CBF1AE0A0E0B2E0E4E3F2E901E00BBFEF
:101DD00002C007900D92A238B107D9F727E1A2E817
:101DE000BAE001C01D92A13FB207E1F71EE0C9EDC4
:101DF000DEE000E006C021970109802FFE010E946D
:101E000055B7C83DD10780E00807A9F70E94EBA5A8
:101E10000C9418C90C9400002F923F924F925F923D
:101E20006F927F928F929F92AF92BF92CF92DF92EA
:101E3000EF92FF920F931F93CF93DF93CDB7DEB74F
:101E4000CC55D1400FB6F894DEBF0FBECDBF809108
:101E5000000D20E6829FC00111248456954F909377
:101E60001D0C80931C0C80917D1380FF18C000E333
:101E700018E0F8018491882341F0082E000C990B9A
:101E80000E946B4F0F5F1F4FF4CF80911C0C9091FD
:101E90001D0C0E9418758AE090E00E946B4F8091A3
:101EA0001C0C90911D0CFC01019620812032D9F36D
:101EB000F0931D0CE0931C0C3E0121E8620E711C96
:101EC00080E8D3011D928A95E9F780818332D9F5A4
:101ED0003196C75DDE4F188219821A821B82C95261
:101EE000D140AAE0B0E0C75DDE4F288139814A8148
:101EF0005B81C952D1400E94F6C82191022E000C8C
:101F0000330B205331098901330F220B330B480166
:101F10005901860E971EA81EB91EC75DDE4F888226
:101F20009982AA82BB82C952D140808180538A3073
:101F3000C0F2DF0131968C918032D9F3B0931D0C41
:101F4000A0931C0C08C0C75DDE4F188219821A824C
:101F50001B82C952D140E0911C0CF0911D0C808174
:101F60008E3469F010911C0C00911D0C6AE270E037
:101F7000812F902F0E94E9BB0097D9F421C0818165
:101F800090ED980F9A3010F08D3261F7CF010296E4
:101F9000FC010196208120532A30D0F3CF01FC01AF
:101FA000019620812032D9F3F0931D0CE0931C0C94
:101FB000D9CFFC0131968291803231F08A3221F002
:101FC000A12FB02F2D9102C01082F5CFFD0180818D
:101FD00011968032D9F380538A3010F00C94ED269C
:101FE00000E010E03AE0309FC001319F900D1124D5
:101FF0008C01005311098191080F111D87FD1A955D
:10200000808180538A3078F3CF01FC0101963081C2
:102010003032D9F3F0939B0AE0939A0A2D3409F4F5
:1020200050C524F4273481F00C94ED26203511F4AA
:102030000C94DB24243511F00C94ED260093E30C72
:1020400000E318E00C94B7240B35110509F4F0C433
:1020500028F50430110580F40230110508F07CC029
:102060000115110509F447C00130110511F00C9458
:10207000ED260E94F4655EC00C31110511F40C943C
:102080001E270A35110509F4CFC40430110511F0DB
:102090000C94ED260E94E5400C943E260A3928E077
:1020A000120709F4D2C498F4043D47E0140709F478
:1020B000C4C4093958E0150709F4C3C40C35110527
:1020C00011F00C94ED260E9421400C943E260C3910
:1020D00088E0180709F4D8C408F4D0C40D391840B2
:1020E00011F00C94ED261091990A81E08093990AE1
:1020F0000E943545D0C480917712909178128D7FDF
:102100000197C1F480916412882339F08091E20C28
:10211000882319F00E94989CF5CF10926412809148
:10212000771290917812019729F460E070E088E0CE
:102130000E942EA40E94FC41882311F40C941128C3
:102140001F928F938AE996E09F938F937F926F926D
:102150000E942DBC0C94112680915902882311F401
:102160000C943E260E94324189E40E940E4088234E
:1021700029F00E94E77A6B017C0103C0C12CD12CAD
:1021800076018AE40E940E40882359F00E94E77A83
:10219000CB5DDE4F688379838A839B83C552D140B0
:1021A00008C0CB5DDE4F188219821A821B82C5528D
:1021B000D140A7019601C701B6010E94B1C24B01EF
:1021C0005C01CB5DDE4F288139814A815B81C5523C
:1021D000D140CA01B9010E94B1C29B01AC01C50145
:1021E000B4010E946FB70E946CBACB5ADE4F68836D
:1021F00079838A839B83C555D140809089129090C2
:102200008A12A0908B12B0908C12C35DDE4F888230
:102210009982AA82BB82CD52D140A7019601C50105
:10222000B4010E946FB7C35BDE4F688379838A83F2
:102230009B83CD54D14080908D1290908E12A090AF
:102240008F12B0909012CB5CDE4F88829982AA8266
:10225000BB82C553D140CB5DDE4F288139814A8195
:102260005B81C552D140C501B4010E946FB7CF5AFE
:10227000DE4F688379838A839B83C155D1408090E8
:10228000911290909212A0909312B0909412C35C0D
:10229000DE4F88829982AA82BB82CD53D140A501AC
:1022A00094016091F80C7091F90C8091FA0C909166
:1022B000FB0C0E946EB7C75CDE4F688379838A830C
:1022C0009B83C953D1408090FC0C9090FD0CA09052
:1022D000FE0CB090FF0CC75ADE4F88829982AA820A
:1022E000BB82C955D1408090951290909612A090D3
:1022F0009712B0909812CF5BDE4F88829982AA82A3
:10230000BB82C154D140A70196015058CF5DDE4F2A
:10231000288339834A835B83C152D140CB5DDE4F32
:1023200088819981AA81BB81C552D140B058CF5CC8
:10233000DE4F88839983AA83BB83C153D1408090A9
:10234000F00C9090F10CA090F20CB090F30CCB5BE1
:10235000DE4F88829982AA82BB82C554D140C35B7A
:10236000DE4F288139814A815B81CD54D140C5013E
:10237000B4010E946EB76B017C018090F40C9090C8
:10238000F50CA090F60CB090F70CC75BDE4F88827E
:102390009982AA82BB82C954D140CF5ADE4F28818C
:1023A00039814A815B81C155D140C501B4010E9488
:1023B0006EB74B015C01A7019601CF5DDE4F6881CE
:1023C00079818A819B81C152D1400E94B1C22B0187
:1023D0003C01A5019401CF5CDE4F688179818A813F
:1023E0009B81C153D1400E94B1C29B01AC01C3018A
:1023F000B2010E946FB72B013C01A5019401CF5D92
:10240000DE4F688179818A819B81C152D1400E94CF
:10241000B1C24B015C01A7019601CF5CDE4F688120
:1024200079818A819B81C153D1400E94B1C29B01B5
:10243000AC01C501B4010E946EB7A30192010E94D4
:1024400009B86B017C0120E030E0A9010E944BC279
:1024500087FF0AC02BED3FE049EC50E4C701B6010D
:102460000E946FB76B017C010230110551F42BED16
:102470003FE049EC50E4C701B6010E946EB76B0122
:102480007C0120E030E0A901C701B6010E944BC2E7
:10249000811132C0CB5BDE4F288139814A815B815B
:1024A000C554D140C35DDE4F688179818A819B81AB
:1024B000CD52D1400E944BC281111EC0C75BDE4F7E
:1024C000288139814A815B81C954D140CB5CDE4F80
:1024D000688179818A819B81C553D1400E944BC21A
:1024E00081110AC02BED3FE049EC50E4C701B60171
:1024F0000E946FB76B017C01CB5ADE4F2881398176
:102500004A815B81C555D140C701B6010E94B1C265
:102510009B01AC010E94B1C24B015C01C75CDE4F64
:10252000288139814A815B81C953D140CA01B901EF
:102530000E94B1C29B01AC01C501B4010E946FB7FA
:102540000E946CBA4B015C012FE632E143E85AE38A
:102550000E944BC287FD64C2C501B4010E942CB920
:102560000E94FDB8CB5CDE4F79836883C553D140B0
:10257000672B41F421E030E0CB5CDE4F39832883C8
:10258000C553D140CB5CDE4F88809980C553D14084
:10259000B40180E090E00E9450C24B015C019B01BD
:1025A000AC01C701B6010E9484B8C35DDE4F6883E9
:1025B00079838A839B83CD52D140A5019401C75C66
:1025C000DE4F688179818A819B81C953D1400E9405
:1025D00084B8CB5BDE4F688379838A839B83C55441
:1025E000D140CF5BDE4F288139814A815B81C15464
:1025F000D140C75ADE4F688179818A819B81C95554
:10260000D1400E946EB7A50194010E9484B8C75BB7
:10261000DE4F688379838A839B83C954D140C35D2D
:10262000DE4F288139814A815B81CD52D140CA0178
:10263000B9010E94B1C220E030E040E05FE30E94B7
:10264000B1C29B01AC0160E070E080E89FE30E94B2
:102650006EB7C75CDE4F688379838A839B83C953D7
:10266000D140C35CDE4F88809980AA80BB80CD5367
:10267000D14089869A86AB86BC86CF5BDE4F888048
:102680009980AA80BB80C154D1408D869E86AF863A
:10269000B88A20E030E040E752E460913602709161
:1026A000370280913802909139020E9484B86B0100
:1026B0007C016091340270913502072E000C880B6A
:1026C000990B0E9452C29B01AC01C701B6010E9446
:1026D000B1C22AE037ED43E25CE30E94B1C2C35CC1
:1026E000DE4F688379838A839B83CD53D1400E94D8
:1026F00050A59B01AC0128533F4F4F4F5F4FCF5B1D
:10270000DE4F288339834A835B83C154D140CF5D38
:10271000DE4F4880C152D140CE5DDE4F5880C2525C
:10272000D140CD5DDE4F6880C352D140CC5DDE4FDD
:102730007880C452D140D12C22242394312CCB5CFC
:10274000DE4F88809980C553D1402814390409F49C
:1027500051C10E943D2A0E9450A58B019C01CF5B74
:10276000DE4F88809980AA80BB80C154D14008196F
:1027700019092A093B0937FD10C09B01AC012853F8
:102780003F4F4F4F5F4FCF5BDE4F288339834A83E4
:102790005B83C154D1400E94989CD39438E13D158D
:1027A0000CF459C0C75CDE4F288139814A815B81B6
:1027B000C953D140CF5CDE4F688179818A819B818A
:1027C000C153D1400E94B1C24B015C01C35DDE4FD9
:1027D000288139814A815B81CD52D140B201C30148
:1027E0000E94B1C2A50194010E946FB77B018C01C8
:1027F000C75CDE4F288139814A815B81C953D14052
:10280000B201C3010E94B1C24B015C01C35DDE4F46
:10281000288139814A815B81CD52D140CF5CDE4F26
:10282000688179818A819B81C153D1400E94B1C264
:102830009B01AC01C501B4010E946EB72B013C01A4
:10284000C701D801CF5CDE4F88839983AA83BB83FD
:10285000C153D14066C0B10180E090E00E9450C2F7
:10286000C35DDE4F288139814A815B81CD52D140E1
:102870000E94B1C24B015C010E947FB86B017C01D8
:10288000C501B4010E945EBA4B015C01A70196012B
:10289000CF5DDE4F688179818A819B81C152D140B1
:1028A0000E94B1C22B013C01A5019401CB5DDE4F1A
:1028B000688179818A819B81C552D1400E94B1C2D1
:1028C0009B01AC01C301B2010E946FB72B013C0117
:1028D000A5019401CF5DDE4F688179818A819B815A
:1028E000C152D1400E94B1C24B015C01A7019601C7
:1028F000CB5DDE4F688179818A819B81C552D14051
:102900000E94B1C29B01AC01C501B4010E946EB727
:10291000CF5CDE4F688379838A839B83C153D14028
:10292000D12C9201A301C35BDE4F688179818A813A
:102930009B81CD54D1400E946FB769837A838B838A
:102940009C83CF5CDE4F288139814A815B81C153F2
:10295000D140CF5ADE4F688179818A819B81C155F0
:10296000D1400E946FB76D837E838F839887CB5B46
:10297000DE4F288139814A815B81C554D140698508
:102980007A858B859C850E946FB769877A878B874C
:102990009C87C75BDE4F288139814A815B81C9549E
:1029A000D1406D857E858F8598890E946FB76D8730
:1029B0007E878F87988BCE0101960E944DA1C09093
:1029C000E30CC35CDE4FE880F9800A811B81CD53A4
:1029D000D1409E01235F3F4FAE01475F5F4FBE0175
:1029E0006B5F7F4FCE0101960E94DE8E4FEF241A5F
:1029F000340AA5CEC090E30CC35CDE4FE880F980BA
:102A00000A811B81CD53D1402CEF3CE048EF5CE0C4
:102A100064EF7CE080EF9CE00E94DE8E0E94603BD1
:102A20000E94B57D0C943E261092990A0C943E2685
:102A300081E08093990A0C943E260E94E5400C9414
:102A40003E260E9435450C94F8258EE40E940E40E7
:102A5000882311F40C943E260E941746833030F4EC
:102A60000E944CB40E94B2B30C943E26833011F005
:102A70000C943E260E94D7B40C943E260E94072D4B
:102A80000E94B57D0C943E261091990A81E08093B6
:102A9000990A0E94FC41882381F01F928F938AE952
:102AA00096E09F938F937F926F920E942DBC0F9020
:102AB0000F900F900F900F900F901093990A0C9415
:102AC00011280F3221E0120709F436C608F01BC1A5
:102AD0000E36110509F4DEC308F094C00235110565
:102AE00009F43CC408F047C00F31110509F45CC279
:102AF000A8F40530110509F43AC230F40330110589
:102B000009F41AC20C94ED260131110509F440C2F2
:102B10000231110509F42BC40C94ED260C34110577
:102B200009F46CC368F40A32110509F425C30B34A7
:102B3000110511F00C94ED260E9485760C943E262A
:102B40000D34110509F474C30135110511F00C940D
:102B5000ED260E94002A0E94072D0E947B9C109265
:102B60007C1310927B1368EE73E080E090E00E948B
:102B700016A50C943E260836110509F45DC318F518
:102B80000435110509F4F3C308F4ECC30535110548
:102B900009F424C40C35110511F00C94ED2636EE21
:102BA000832E32E0932E09E912E14FE5A42E43E192
:102BB000B42E2EE733E1CF5DDE4F39832883C15237
:102BC000D140312C26C40B36110509F4C3C368F477
:102BD0000936110509F4A1C30A36110511F00C9448
:102BE000ED260E945B480C943E260C36110509F434
:102BF00071C30D36110511F00C94ED260E94894623
:102C00000C943E26093C110509F453C5B8F5053767
:102C1000110511F40C941E2790F40037110509F4E6
:102C20005DC308F453C30237110509F489C403379F
:102C3000110511F00C94ED2605EB15E073C409376E
:102C4000110509F481C480F40737110509F482C421
:102C50000837110511F00C94ED2681E080930902EC
:102C6000809360120C943E260C38110509F43EC383
:102C7000083C110509F4D1C40C94ED260D3D110555
:102C800009F427C5F8F40D3C110509F41AC568F4D8
:102C90000B3C110509F411C50C3C110511F00C9405
:102CA000ED260E9431870C943E260E3C110509F456
:102CB0000CC50C3D110511F00C94ED260E94C18647
:102CC0000C943E260C3241E0140709F40AC568F45E
:102CD000023E110509F401C50831114011F00C94B0
:102CE000ED260E945C850C943E260D3291E019077A
:102CF00009F41EC50E32114011F00C94ED260E940D
:102D000010840C943E260C3AB8E01B0709F43DC72A
:102D100008F087C0033EF7E01F0709F46FC608F00C
:102D200041C0053F31E0130709F449C6D8F40A3918
:102D300051E0150709F4D6C248F40039114011F0EA
:102D40000C94ED260E94072D0C943E260C3AA1E02F
:102D50001A0709F4F5C4043F114011F40C941E271E
:102D60000C94ED260B38E3E01E0711F40C941E279B
:102D700058F4063F21E0120709F428C6073F114026
:102D800009F428C60C94ED26073E43E0140709F425
:102D900031C6003D174011F00C94ED260E9490675B
:102DA0000C943E260A3988E0180709F43BC6E8F47B
:102DB0000A34A8E01A0709F425C648F40834184074
:102DC00011F00C94ED260E9492640C943E26083972
:102DD000F8E01F0709F41AC60939184011F00C94DD
:102DE000ED260E945D640C943E26033A38E01307FA
:102DF00009F44BC658F40B3958E0150709F416C608
:102E0000023A184009F417C60C94ED26043A98E0EB
:102E1000190709F476C6053A184009F4A2C60C94BD
:102E2000ED260D3FB8E01B0711F40C943920D8F5BE
:102E3000093BF8E01F0711F40C94EE1E90F40E3AD3
:102E400038E0130709F44BC708F4F8C6073B58E00D
:102E5000150709F4A4C7083B184009F4B0C70C943F
:102E6000ED26013C98E0190711F40C941B1F70F437
:102E70000A3BB8E01B0709F4BDC7003C184011F03D
:102E80000C94ED260E94D8630C943E26053CF8E095
:102E90001F0711F40C94381F0C3F184011F40C94C8
:102EA0009F1F0C94ED26033039E0130711F40C94A6
:102EB000AD2208F5011559E0150711F40C946A21AB
:102EC00068F40E3F98E0190711F40C9497200F3F17
:102ED000184011F40C94D1200C94ED260130B9E087
:102EE0001B0711F40C9489210230194011F40C9441
:102EF0005C220C94ED260A36F9E01F0711F40C94BD
:102F0000002468F4003639E0130711F40C94E2222F
:102F10000136194011F40C9480230C94ED260B36E5
:102F200059E0150711F40C948824043C194011F45D
:102F30000C94A6240C94ED2680917712909178122F
:102F4000019711F00C943E260E94072D86E50E9401
:102F50000E40882321F00E94174680930002609162
:102F6000000270E088E00E942EA40C943E2680911E
:102F7000771290917812019711F00C943E260E94DE
:102F8000072D60E070E088E00E942EA40C943E269D
:102F90000E948C9C68EE73E080E090E00E9416A591
:102FA0000E941F660C943E268091D3179091D417EF
:102FB000019719F40E9450A508C06091DD17709127
:102FC000DE178091DF179091E0170091D9171091CB
:102FD000DA172091DB173091DC17601B710B820B25
:102FE000930B28EE33E040E050E00E94B5C880919A
:102FF000D5179091D617A091D717B091D817BC01CB
:10300000CD01620F731F841F951FECE3CE2ED12CD0
:10301000E12CF12CA70196010E94B5C8762E672EEF
:10302000CA01B901A70196010E94B5C86B017C01D4
:10303000CA01B90128E130E040E050E00E94B5C883
:103040004B015C01C9016DE671E00E942DB78E0154
:103050000F5F1F4F6115710599F06F927F92DF929C
:10306000CF929F928F929F938F937F936F9388E8D5
:1030700095E09F938F931F930F930E941BC226C0CE
:10308000009789F06F927F92DF92CF929F928F92FA
:103090009F938F9388E795E09F938F931F930F9350
:1030A0000E941BC213C081149104A104B104C1F099
:1030B0006F927F92DF92CF929F928F928CE695E0F3
:1030C0009F938F931F930F930E941BC20FB6F89488
:1030D000DEBF0FBECDBF60E3E62E68E0F62E23C054
:1030E000C114D104E104F10469F06F927F92DF9280
:1030F000CF9284E695E09F938F931F930F930E9446
:103100001BC2E4CF6F927F9280E695E09F938F93EE
:103110001F930F930E941BC20F900F900F900F9060
:103120000F900F90D8CFF7018491882349F0082E93
:10313000000C990B0E946B4F5FEFE51AF50AF3CF75
:103140005CE9E52E55E0F52EF7018491882349F0DE
:10315000082E000C990B0E946B4FFFEFEF1AFF0A2D
:10316000F3CFC8010E9418758AE090E00E946B4F6F
:103170000E94897D0C943E2683E50E940E408823A0
:1031800011F40C943E260E9481487C018F3F9105EA
:1031900019F010F00C943E2680E50E940E40882322
:1031A00039F00E9481488C0197FF04C00C943E26A0
:1031B00002E010E0E6E9F2E0819191910817190729
:1031C00011F40C943E2622E0E63EF207A9F761E0F6
:1031D000802F0E94F2A36E2D802F0E946D79B7017F
:1031E000802F0E942EA40830110511F00C941E2788
:1031F000F0927C13E0927B130C943E268091D317BF
:103200009091D417019711F00C943E2682E090E043
:103210009093D4178093D3170E9450A56093DD1725
:103220007093DE178093DF179093E0170C943E267F
:103230000E94524F0C943E2688E690E00E9446463B
:1032400081110C943E2680917D1383FF02C00C9463
:103250003E2683E50E940E40882311F40C943E26FE
:103260000E94E77A0E94F6B8709338126093371282
:103270000E940A490E94E77A20E030E04AEA52E4DC
:103280000E944BC2181614F00E94524F0E94E77A17
:103290000C943E268EE40E940E40882311F40C9478
:1032A0003E268091820A9091830A4AE050E060E0D5
:1032B00070E001960E9419BF6093840A7093850A9A
:1032C0008093860A9093870A0C943E260E945A891E
:1032D0000C943E26109258020C943E2689EA95E002
:1032E0000E94529C0E94FD7F0C943E2680917D138B
:1032F00083FF02C00C943E2683E50E940E40882383
:1033000011F40C943E260E94E77A0E94F6B870935E
:10331000A6116093A5110C943E2689E690E00E94C8
:10332000464681110C94262802EB15E0F8018491A1
:10333000882341F0082E000C990B0E946B4F0F5F01
:103340001F4FF4CF0E94123B8AE090E00E946B4F27
:103350000C9426280E944C480C943E261092980A01
:103360000C943E2681E08093980A0C943E2683E5D7
:103370000E940E408823A1F00E94E77A20E030E00E
:103380004AE754E40E94B1C20E94FDB860938802EB
:103390007093890280938A0290938B020C943E264C
:1033A00088E50E940E4081110C94182689E50E9440
:1033B0000E4081110C9418268AE50E940E4081115E
:1033C0000C94182685E40E940E4081110C94182656
:1033D0000E94072D0E947B9C0C943E2683E50E9450
:1033E0000E40882311F40C943E260E94E77A20E0D8
:1033F00030E04AE754E40E94B1C20E94FDB86093F5
:10340000AB137093AC138093AD139093AE130C94E5
:103410003E26D4018D914D010E940E40882309F46F
:1034200066C0B3E03B125CC00E94E77A2B013C010E
:1034300020E030E040EA51E40E944BC287FF49C0DF
:10344000A3019201F80160817181828193810E94C0
:1034500084B86B017C019B01AC01609157137091A2
:1034600058138091591390915A130E94B1C26093DE
:103470005713709358138093591390935A13A701BD
:103480009601D5016D917D918D919C910E94B1C263
:10349000F5016083718382839383CF5DDE4FA881C2
:1034A000B981C152D1406D917D918D919C910E94C5
:1034B00050C2A70196010E94B1C20E94FDB8CF5D23
:1034C000DE4FE881F981C152D140608371838283EC
:1034D0009383D8014D925D926D927C92139707C0B1
:1034E0000E94E77AF8016083718382839383339427
:1034F0000C5F1F4FF4E0AF0EB11CCF5DDE4F288193
:103500003981C152D1402C5F3F4FCF5DDE4F3983AF
:103510002883C152D14034E033127BCF0E94BA8E4F
:103520000C943E26F8018491882311F40C943E26D5
:10353000082E000C990B0E946B4F0F5F1F4FF2CFAC
:103540000E942F880C943E2610920902109260125D
:103550000C943E2607E916E0F8018491882341F097
:10356000082E000C990B0E946B4F0F5F1F4FF4CF7A
:103570000FE816E0F8018491882341F0082E000C32
:10358000990B0E946B4F0F5F1F4FF4CF059903C03B
:1035900085E996E002C08BE896E00E9418758AE003
:1035A00090E00E946B4F07E816E0F80184918823B1
:1035B00041F0082E000C990B0E946B4F0F5F1F4FBC
:1035C000F4CF8091090187FD03C085E996E002C030
:1035D0008BE896E00E9418758AE090E00E946B4F9D
:1035E0000FE716E0F8018491882341F0082E000CC3
:1035F000990B0E946B4F0F5F1F4FF4CF079903C0C9
:1036000085E996E002C08BE896E00E9418758AE092
:1036100090E00E946B4F0C943E2688EC90E00E9454
:10362000464681110C943E2684E40E940E40882375
:1036300011F40C943E260E94E77A11E020E030E07D
:10364000A9010E944BC2811101C010E010936112C8
:10365000112359F10091880A10E00E94E77A000FC7
:10366000111F000F111FF801E15BFD4F6083718393
:103670008283938320E030E0A90160914F02709132
:10368000500280915102909152020E944BC28111CE
:103690000CC080E090E0A0EEBFE380934F029093D7
:1036A0005002A0935102B09352020E940B9C0C94C2
:1036B0003E260E940A880C943E260E94E8870C94BD
:1036C0003E260E94CD860C943E260E9401890C94D1
:1036D0003E260E94A6860C943E260E944F860C949D
:1036E0003E2683E50E940E40882321F00E943F4839
:1036F0008C0102C004E011E080E50E940E408823A6
:1037000011F40C9422280E943F488938F3E19F0766
:1037100028F4009711F40C943E2602C088E893E147
:10372000BC0180E090E0A8010E945A490C943E261A
:103730000E9483840C943E260E9469800C943E264D
:10374000B9E82B2EB2E13B2E22EC3CE0CF5DDE4F00
:1037500039832883C152D1404AEE52E0CB5DDE4F1F
:1037600059834883C552D14000E010E0CB5DDE4F65
:1037700088819981C552D1408A5E9240CF5CDE4FEC
:1037800099838883C153D140CB5DDE4FA881B98135
:10379000C552D1408D91CB5DDE4FB983A883C55210
:1037A000D140882309F4CAC0F10180809180A280B1
:1037B000B380F801EC59FD4F208131814281538162
:1037C000F801E059FD4F60817181828193810E94EF
:1037D0006FB720E030E040E05FE30E94B1C29B01A0
:1037E000AC01C501B4010E941EBA181644F4F801D8
:1037F000E153F94F659175918591949103C060E013
:1038000070E0CB01CF5DDE4FA881B981C152D140BC
:103810004D905D906D907C90A30192010E946FB7D6
:10382000F801E757F54F20813181428153810E9491
:103830006FB79B01AC01C501B4010E946EB76B016B
:103840007C0120E030E040EA51EC0E941EBA1816DC
:10385000ACF520E030E040EA51E4C701B6010E9437
:103860004BC287FF2BC0A7019601C301B2010E9482
:103870006EB76B017C01A30192010E946EB79B01A0
:10388000AC01C501B4010E946FB7F101608371837F
:1038900082839383CF5DDE4FA881B981C152D1402D
:1038A000CD92DD92ED92FC921397CF5CDE4F888132
:1038B0009981C153D1400E94BD3F40C004E615E14B
:1038C000F8018491882341F0082E000C990B0E9486
:1038D0006B4F0F5F1F4FF4CF01EB16E0F80184919F
:1038E000882341F0082E000C990B0E946B4F0F5F4C
:1038F0001F4FF4CF88E290E09A83898388EC90E0B0
:10390000CF5FDE4F99838883C150D140BE016F5F86
:103910007F4FCE018F5F9E4F0E94F076C75DDE4FD6
:1039200088809980AA80BB80C952D14089288A2882
:103930008B2811F40C949C260C944B2624E0220E28
:10394000311C0C5F1F4FCF5DDE4F48815981C15242
:10395000D1404C5F5F4FCF5DDE4F59834883C152EA
:10396000D1400C30110509F001CF0E94E77C0E9484
:103970002F8883E992E0CF5FDE4F99838883C1501F
:10398000D14008EC10E01A830983BE016F5F7E4FBF
:10399000CE0101960E94F0768AEB92E0CF5FDE4F77
:1039A00099838883C150D1401A830983BE016F5F18
:1039B0007E4FCE0101960E94F0760C943E260E9426
:1039C000945C80E00E9462590C943E260E94945CB4
:1039D0000C943E2683E50E940E40982F882329F000
:1039E0000E94174691E0811190E0892F0E94625950
:1039F0000C943E260E94EE7F0C943E260E947B9CF7
:103A00000C943E260E9484640C943E268091E20C25
:103A1000882321F06CEA76E00C9404266FEA76E0C5
:103A20000C9404260E942D640C943E26C3010E942F
:103A3000F3630C94F82586E40E940E40882321F05D
:103A40000E943F488C0102C008EE13E084E50E940A
:103A50000E40882329F00E94E77A0E94FDB802C038
:103A600064E071E080E090E06115710581059105E9
:103A700011F40C943E26A8010938134110F048E8CF
:103A800053E10E945A490C943E268EE40E940E4057
:103A9000882311F40C9469260E943F48F82E81E493
:103AA0000E940E40882311F40C9469260E943F481E
:103AB0006C0184E50E940E40882311F40C94692661
:103AC0000E943F488C01482FB6018F2D0E9439700B
:103AD0000230110541F00430110559F00130110593
:103AE00011F00C948C260E94F6B87F936F930C947F
:103AF00009269F938F937F936F9386EB96E00C94A8
:103B00009A258EE40E940E40882311F40C943E26E0
:103B10000E943F48F82E81E40E940E40882311F451
:103B20000C943E260E943F486C0184E50E940E40A2
:103B3000882311F40C943E260E943F48E82E86E527
:103B40000E940E40882311F40C943E260E94E77ACE
:103B50008B019C014E2DB6018F2D0E94466F0C9457
:103B60003E2686E50E940E40882311F40C943E26E2
:103B70000E943F48892B21F010923F160C943E265C
:103B800081E080933F160C943E2688E50E940E400B
:103B9000882311F40C9469260E94E77ACF5FDE4FE8
:103BA000688379838A839B83C150D14089E50E94D1
:103BB0000E40882309F4F0C00E94E77ACB5FDE4F05
:103BC000688379838A839B83C550D1408AE50E94AC
:103BD0000E40882309F4E0C00E94E77AC75FDE4FF9
:103BE000688379838A839B83C950D140BE016F5F0C
:103BF0007F4FCE018F5F9E4F0E946A3B81111BC099
:103C00008C858F938B858F938A858F9389858F93EE
:103C100088858F938F818F938E818F938D818F93E2
:103C20008C818F938B818F938A818F9389818F93DE
:103C30008AEB96E048C016E10C94022882E40E94C8
:103C40000E40882311F40C9469260E94E77A1B0128
:103C50002C018CE40E940E40882309F49DC00E9430
:103C6000E77A6B017C0182E50E940E40882309F40B
:103C700093C00E94E77A4B015C0192018101AE0181
:103C8000475F5F4FBE016B5F7F4FCE0101960E9481
:103C90003F718C858F938B858F938A858F938985D0
:103CA0008F9388858F938F818F938E818F938D8152
:103CB0008F938C818F938B818F938A818F9389814E
:103CC0008F9386EC96E09F938F937F926F920E94E2
:103CD00036690FB6F894DEBF0FBECDBF5AC07E0165
:103CE00051E0E50EF51E0DEE12E06701A3E0BA2EDD
:103CF000B00ED8018D918D010E940E40882309F4E9
:103D00004BC00E94E77AF70161937193819391937D
:103D10007F01B012EECF83E50E940E40882329F088
:103D20000E94174681110C94A226F6018081918190
:103D3000A281B381CF5EDE4F88839983AA83BB8340
:103D4000C151D14084819581A681B781CB5EDE4F80
:103D500088839983AA83BB83C551D140808591858F
:103D6000A285B385C75EDE4F88839983AA83BB8310
:103D7000C951D140BE016F5F7F4FCE018F5E9E4F14
:103D80000E946A3B8111DBC76CEA76E0C3010E94A6
:103D9000FDBB10E00C94022815E10C94022886E586
:103DA0000E940E40882309F469C70E9417468823A1
:103DB00019F00E942D6D62C70E941B6D5FC786E5DA
:103DC0000E940E40882309F459C70E941746882391
:103DD00011F0479853C70E94196D50C700E010E0DA
:103DE000980141E068EE73E080E00E94466F109217
:103DF000B50C44C786E50E940E40882309F43EC7EF
:103E00000E94174691E0811190E090934316992308
:103E100009F434C786EF95E10E94CF398091F116FD
:103E2000811106C089E595E19093F0168093EF1615
:103E30001092401623C78EE40E940E40882309F496
:103E40001DC70E941746182F86E50E940E40882342
:103E500009F414C70E941746882329F061E0812FD6
:103E60000E94F2A30BC760E0812F0E94F2A306C755
:103E70008E010F5F1E4F8CE0D8011D928A95E9F7E5
:103E800086E50E940E40882309F453C06BE070E081
:103E9000C8010E948E48F80101900020E9F731978F
:103EA000E01BF10B09F448C03C9714F0F8011386AD
:103EB000629942C062ED76E089E595E10E94F27276
:103EC000B80189E595E10E94F27264E670E080E055
:103ED00090E00E9416A56AED76E089E595E10E94E2
:103EE000F27264E670E080E090E00E9416A58E0118
:103EF0000F5F1F4F68017601E01AF10A89E595E12D
:103F00000E942C60892B41F089E595E10E940A60AE
:103F1000D6018D936D01EFCFF801EE0DFF1D1082DC
:103F200068EE76E0C8010E9413BC892B09F031CFFE
:103F300003C060EF76E0B9C26EEF76E0B6C28EE401
:103F40000E940E40882309F499C60E941746082F44
:103F500084E40E940E40882321F00E941746182F07
:103F600001C010E081E40E940E40882319F00E94F5
:103F70001746182F89E40E940E40882319F00E94EA
:103F80001746182F802F90E0FC013A97E830F10592
:103F900008F054C78827EE58FF4F8F4F0C9455B741
:103FA00082EF96E10E94397F882369F020E030E0BB
:103FB000A9016CE082EF96E10E941C7F82EF96E1FE
:103FC0000E9409A35BC680E197E00E94594E56C645
:103FD0000E94E49A53C688EF810F823038F4812F13
:103FE00090E0909314178093131748C688E090E0F0
:103FF000909314178093131741C688EF810F823076
:1040000038F4812F90E0909306178093051736C6F9
:1040100088E090E090930617809305172FC688EFED
:10402000810F823038F4812F90E0909304178093B1
:10403000031724C688E090E0909304178093031739
:104040001DC60E94DEA21AC688EF810F823038F4A6
:10405000812F90E090930217809301170FC688E09C
:1040600090E0909306178093051708C60E94BD48FC
:1040700005C68EE40E940E40882309F4FFC50E9405
:104080001746182F86E50E940E40882309F4F6C5CE
:104090000E943F48AC0160E070E0411551056105A8
:1040A0007105D1F4112309F4E9C5E9E4FCE080E0ED
:1040B00090E0208121130AC02BE0289FF001299F66
:1040C000F00D1124E95BF34F1282D8C501963B969F
:1040D0008A30910571F7D2C51C30E9F058F41A30D6
:1040E000A1F01B3009F0AAC62EEB3BE68BE00E9444
:1040F0004439C4C51F30A9F0103109F09FC62EE322
:104100003AE680E10E944439B9C52FE23BE68AE0F5
:104110000E944439B3C522EE3AE68CE00E9444394D
:10412000ADC52BE83AE68FE00E944439A7C58EE47E
:104130000E940E40882309F4A1C50E941746F82E5C
:1041400086E50E940E40882309F498C50E943F48E6
:104150008C01BDE0FB1621F0EEE0FE1669F06EC6A4
:1041600061E0809105170E94F2A3B8017727809142
:1041700005170E942EA482C561E080910317012BD0
:1041800041F00E94F2A361E0809103170E946D79D3
:1041900075C50E94F2A360E0809103170E946D79BB
:1041A0006DC58E010F5F1F4F81E1D8011D928A9569
:1041B000E9F78EE40E940E40882309F45FC50E944F
:1041C000174683E50E940E40882309F444C00E94EC
:1041D0001746B82E86E50E940E40882329F06EE12E
:1041E00070E0C8010E948E48B1E0BB1508F446C5D6
:1041F000F12CBA946B2D8F2D0E944BA365EB77E0C9
:1042000087EF96E10E94F272F394E0E1FE12F2CFA2
:104210006AE070E080E090E00E9416A57801C12C71
:10422000D12CF80101900020E9F73197E01BF10B48
:10423000CE16DF0608F022C56B2D8C2D0E944BA3F5
:10424000D7016D917D0187EF96E10E94667ABFEFFD
:10425000CB1ADB0AE6CF84E50E940E40882351F199
:104260000E941746182F86E50E940E4081110E9479
:104270003F481130A9F058F0123009F0FFC481E036
:104280000E94C07D8BE39FE10197F1F7F7C4809115
:10429000FC168B7F8093FC1688600E94C07DEEC464
:1042A0008091FC16982F94609093FC168C600E946D
:1042B000C07DE4C482E50E940E4081114AC587E4B6
:1042C0000E940E40811145C582E40E940E4081117A
:1042D00040C5D4C480E50E940E408823B9F00E94F6
:1042E00017468E3008F09DC6082F10E0000F111FF2
:1042F000015E1B4EF80180819181009709F491C6FF
:104300000E9412BDD8011D921C928BC66DE377E00E
:1043100054C180E50E940E40882309F4CAC00E945F
:104320001746F82E8EE40E940E40882309F4C1C07F
:104330000E941746E82E8E010F5F1F4F8CE0F80198
:1043400011928A95E9F7FDE0FF1530F41F928EE097
:104350008F9380E597E00AC08E2D90E0863191051D
:1043600094F01F9286E18F938FE697E09F938F934F
:104370007F926F920E942DBC0F900F900F900F9024
:104380000F900F90CCC1880F991FFC01E75FFB4F86
:10439000C080D1802F2D30E081E090E00F2C02C052
:1043A000880F991F0A94E2F78C219D21892BD9F55A
:1043B0001F92EF9280E997E09F938F937F926F9285
:1043C0000E942DBC0F900F900F900F900F900F90A8
:1043D000E12CF12CAA24A394B12CC5010E2C02C00F
:1043E000880F991F0A94E2F78C219D21892B71F087
:1043F0004AE0B801C7010E94C5C1B801C3010E94CB
:10440000DEBB65EB77E0C3010E94DEBB2FEFE21A53
:10441000F20A3EE0E316F10401F76DE877E0C3012C
:104420000E94DEBB7CC18901000F111FA801415E03
:104430005B4E6A01DA018D919C91009709F400C5E9
:104440000E9412BDF60111821082FAC48BE190E045
:104450000E947DBCFC0181E093E0918380838FEF1B
:10446000858721E030E0318B208B16821582128601
:1044700011861486138610861782138A128A158A6B
:10448000148A118E108E178A168A828FD801A15E27
:10449000BB4EED93FC93F801E15EFB4E8081918170
:1044A000009709F097C565EC77E0C3010E94FDBB5A
:1044B00036C160EE77E081C080E50E940E4088231F
:1044C00009F448C00E941746F82E86E50E940E4067
:1044D000882309F43FC00E943F48AC0160E070E0CF
:1044E000BDE0BF1530F41F928EE08F9380E597E01A
:1044F0004CC00F2D10E0F801EE0FFF1FE15EFB4EE8
:1045000080819181892B19F41F92FF923CC023E096
:10451000000F111F2A95E1F741155105610571053D
:1045200041F4F801E155FC4E10821182128213828F
:1045300078C501551C4EF801408351836283738313
:104540000E9450A5D80114966D937D938D939C93F2
:10455000179767C560E178E030C080E50E940E40A3
:10456000882349F10E9417468E3008F0BCCFE82F0F
:10457000F0E0EE0FFF1FE15EFB4EA081B1811097CE
:1045800089F41F928F9386EF97E09F938F937F928A
:104590006F920E942DBC0F900F900F900F900F9074
:1045A0000F900EC0ED91FC9111970480F581E02DE4
:1045B000CD01199536C566E278E0C3010E94FDBBC6
:1045C00019E188C383E50E940E40882309F456C38D
:1045D0000E941746182F282F30E0243031050CF0A8
:1045E0008CC030937812209377128230B1F08330F0
:1045F00091F1813009F040C08DEC9CECA0E8B2E470
:104600008093330C9093340CA093350CB093360CFC
:1046100086EF98E2ACE4B2E43FC080E090E0A2E62E
:10462000B2E48093330C9093340CA093350CB09388
:10463000360C89E29CEDA4E9B2E480932F0C9093B0
:10464000300CA093310CB093320C91E090932D0C70
:1046500090932E0C2DC080E090E0ABE8B2E4809304
:10466000330C9093340CA093350CB093360C89E244
:104670009CEDA4E9B2E410C08AE999E9A2E6B2E4AB
:104680008093330C9093340CA093350CB093360C7C
:104690008AE999E1A5E9B2E480932F0C9093300C5C
:1046A000A093310CB093320C10922D0C10922E0C62
:1046B000C9010E944C72612F70E080E090E00E947E
:1046C00050C28B019C0141E064E873E080E00E94ED
:1046D000466F60912F0C7091300C8091310C90914D
:1046E000320C0E943F726091330C7091340C8091B7
:1046F000350C9091360C0E9432720E941F66BEC229
:104700000E943471882309F479C086E50E940E4026
:10471000882359F00E943F488D3E984511F019E1D9
:1047200071C4C3010E94166763C282E40E940E40F6
:104730008823A9F3FE0131967F0110E0812F0E94AA
:10474000A66DD7018D939D937D018130904138F7FF
:104750001F5F133099F769817A8170932D026093FE
:104760002C028B819C8190932F0280932E028D814D
:104770009E81909331028093300280E090E00E940D
:1047800050C28B019C0142E064E373E080E00E9430
:10479000466F60912E0270912F0280E090E00E949F
:1047A00050C28B019C0142E066E373E080E00E940E
:1047B000466F609130027091310280E090E00E947B
:1047C00050C28B019C0142E068E373E080E00E94EC
:1047D000466F00E010E02BE333E441E062E373E076
:1047E00080E00E94466F8AE092E090932B028093D3
:1047F0002A020E941F666FE877E0C8CA18E102C467
:1048000083E50E940E40882319F00E94E77A62C077
:104810000E943471882309F460C00E9434718111B0
:1048200005C089E398E00E94594E4CC0FE013196C4
:104830007F0110E0812F0E94226FD7016D937D933D
:104840008D939D937D011F5F1330A1F726EE3EE20D
:1048500045E652E46D817E818F8198850E9484B8FF
:104860000E945EBA6B017C0126EE3EE245E652E410
:1048700069857A858B859C850E9484B80E945EBA82
:104880004B015C012CEE31E14EE053E4C701B6016F
:104890000E94B1C26B017C012CE53FEC4EE153E478
:1048A000C501B4010E94B1C29B01AC01C701B601B0
:1048B0000E946EB723E333E345ED52E40E946FB7E5
:1048C0006B017C012AE939E949E95EE3C701B601D8
:1048D0000E946FB76B017C0103C0C12CD12C760103
:1048E0000E943471882309F4C9C1C0922F0CD09260
:1048F000300CE092310CF092320CC701B6010E94EC
:104900003F72C701B6010E943F720E941F66B6C186
:1049100083E50E940E40882309F4B0C10E94E77A23
:104920006B017C010E943471882309F4A7C1C092F5
:10493000330CD092340CE092350CF092360CC70157
:10494000B6010E9432720E941F6698C10E94DFA1C8
:104950008CEB94E10E941D758091F11681118EC13E
:104960008CEB94E19093F0168093EF1687C1F801D9
:104970008491882341F0082E000C990B0E946B4F04
:104980000F5F1F4FF4CF0BED16E0F80184918823E1
:1049900041F0082E000C990B0E946B4F0F5F1F4FC8
:1049A000F4CF8091E30C90E00E9416748AE090E0CE
:1049B0000E946B4F63C10D3AF8E01F0709F4E4C091
:1049C00008F04EC00B3938E0130709F4BFC088F473
:1049D000093958E0150709F4A0C008F0A1C008394A
:1049E000184009F0FAC1AE014F5F5F4F7A0110E045
:1049F0006DC00D39A8E01A0709F4AFC008F4A6C0CD
:104A00000E39E8E01E0709F4ABC00C3A184009F073
:104A1000E4C1809194128F93809193128F9380912F
:104A200092128F93809191128F93809190128F9315
:104A300080918F128F9380918E128F9380918D121F
:104A40008F9380918C128F9380918B128F93809192
:104A50008A128F93809189128F9386EC96E0B2C070
:104A6000003C28E0120709F4C0C0D0F4083B48E03D
:104A7000140709F4AEC038F4073B184009F0ADC183
:104A80000E94346FB0C0093B98E0190709F4A4C034
:104A90000A3B184009F0A1C1C3010E94B763A8C036
:104AA000023CB8E01B0709F4A9C008F4A3C0053C08
:104AB000F8E01F0709F4A6C00036194009F08DC1BF
:104AC000809178128F9380917712A2C0812F0E94DB
:104AD000226FD7016D937D938D939D937D011F5F11
:104AE0001330A1F78C858F938B858F938A858F9355
:104AF00089858F9388858F938F818F938E818F93F4
:104B00008D818F938C818F938B818F938A818F93EB
:104B100089818F938AEB96E055C08DE498E018C0A8
:104B2000809176121F928F938AE598E09F938F93DE
:104B30008EE598E09F938F937F926F920E943669E3
:104B40000FB6F894DEBF0FBECDBF6BC285E698E00E
:104B50009F938F9386E598E05EC085EB9CE0F8CF4D
:104B60008EE40E940E40882309F4B3C00E941746C9
:104B7000843008F065C20E94226F9F938F937F93C9
:104B80006F938BE698E0D6CFCE0101960E941A76FD
:104B90008C858F938B858F938A858F9389858F934F
:104BA00088858F938F818F938E818F938D818F9343
:104BB0008C818F938B818F938A818F9389818F933F
:104BC00081E798E09F938F937F926F920E9436695E
:104BD000B7CF0E940C6D07C082B3869586958695E7
:104BE00091E0892781701F9213C0C3010E949563D1
:104BF000182F08C2C3010E947363FACFC3010E9439
:104C00003063F6CF6FE877E0C3010E94FDBB09C2B5
:104C10008F9382EB96E09F938F937F926F920E9487
:104C200036690F900F900F900F900F900F90F9C171
:104C30000E94072D88E50E940E40882319F05F9896
:104C400010922A0C89E50E940E40882319F08A9858
:104C500010922B0C8AE50E940E40882351F09FB7DA
:104C6000F894809108018E7F809308019FBF109275
:104C70002C0C85E40E940E408111129AC75DDE4F14
:104C8000288139814A815B81C952D140232B242B51
:104C9000252B09F451C000E010E08DE798E00E9458
:104CA00018754AE0C75DDE4F688179818A819B81F2
:104CB000C952D1400E94704F85EB97E00E94187551
:104CC0000023D1F1111113C08FE798E00E941875ED
:104CD00019C015E1C75DDE4F88809980AA80BB802E
:104CE000C952D14089288A288B2809F098C188EDBB
:104CF00096E00E941875612F70E080E090E04AE035
:104D00000E94704F85EB97E00E941875CE018F5777
:104D10009F4F0E94594E9AC101E0C75DDE4F8880C7
:104D20009980AA80BB80C952D14089288A288B28C3
:104D300009F0B2CF0111C8CF0E94DFA187C16FEA8D
:104D400076E024C8B601CE018F5E9E4F0E94743F6C
:104D500011C882E50E940E408823D9F10E941746AF
:104D6000C82ED12CE12CF12C87E40E940E40882320
:104D700039F00E941746882E912CA12CB12C03C02B
:104D8000812C912C540182E40E940E40882339F03A
:104D90000E941746482F50E060E070E003C040E0FA
:104DA00050E0BA01BA2CA92C982C88247601DD2475
:104DB000CC248C289D28AE28BF2875016401C42A04
:104DC000D52AE62AF72A6D2D4C2D8E2D0E94A44857
:104DD00055CFC12CD12C7601C7CF00E318E0F801E4
:104DE0008491882341F0082E000C990B0E946B4F90
:104DF0000F5F1F4FF4CF00EF16E0F8018491882376
:104E000041F0082E000C990B0E946B4F0F5F1F4F53
:104E1000F4CF80911C0C90911D0C0E9418750DEE22
:104E200016E0F8018491882309F410C1082E000CC3
:104E3000990B0E946B4F0F5F1F4FF3CF00E06DCFB8
:104E40004E2D50E0FA013197E531F10508F02BCBFA
:104E50008827E658FF4F8F4F0C9455B78AE090E0B3
:104E60000E947DBC25EF32E095C085E090E00E9475
:104E70007DBC2DE033E098C083E190E00E947DBCD2
:104E800029E133E087C085E090E00E947DBC25E207
:104E900033E08AC087E090E00E947DBC21E333E0EC
:104EA00079C086E090E00E947DBC2DE333E07CC0B9
:104EB00087E090E00E947DBC29E433E06BC085E090
:104EC00090E00E947DBC25E533E06EC087E090E075
:104ED0000E947DBC6C0181E693E0D6018D939C938A
:104EE00085E090E00E947DBCFC0110821482138258
:104EF00082E090E092838183D6011696FC93EE9334
:104F00001597F801E15EFB4ED182C082C4CA85E0EC
:104F100090E00E947DBC2DE633E046C087E090E043
:104F20000E947DBC29E733E035C085E090E00E9417
:104F30007DBC25E833E038C085E090E00E947DBC70
:104F400021E933E027C085E090E00E947DBC2DE997
:104F500033E02AC085E090E00E947DBC29EA33E07E
:104F600019C087E290E00E947DBC27E2FC0111920B
:104F70002A95E9F721E034E00DC086E090E00E9438
:104F80007DBC25EB33E010C085E090E00E947DBC45
:104F900021EC33E0DC012D933C9316C085E090E0DA
:104FA0000E947DBC2DEC33E0FC01318320830CC0DA
:104FB00087E090E00E947DBC29ED33E0DC01119692
:104FC0003C932E9316961C92F801E15EFB4E918362
:104FD000808361CADC01ED91FC91D801AF51BC4FD7
:104FE0000190F081E02D11962C9111974C916F2D2D
:104FF000199581110C94C91E67EB77E0CE018F578C
:105000009F4F54CAC75DDE4F288139814A815B8139
:10501000C952D140232B242B252B09F453CE01E078
:105020003CCEC75DDE4F88819981AA81BB81C95280
:10503000D140892B8A2B8B2B09F446CE01E02CCE54
:1050400016E148CE88EE93E00C94901BC45ADE4FD4
:105050000FB6F894DEBF0FBECDBFDF91CF911F9189
:105060000F91FF90EF90DF90CF90BF90AF909F9007
:105070008F907F906F905F904F903F902F9008950A
:105080001F920F920FB60F9211240BB60F922F930F
:105090003F934F935F936F937F938F939F93AF93C0
:1050A000BF93EF93FF9380914D0281111AC09091AD
:1050B000A8119093181280912E0C992341F0882307
:1050C00081F09FB7F89480910201806407C0882323
:1050D00041F09FB7F894809102018F7B8093020189
:1050E0009FBF9091181280914D02981760F48091A3
:1050F0002E0C882341F09FB7F894809102018F7B9A
:10510000809302019FBF80914D028F5F8F778093C4
:105110004D02E0914B02F0914C02ED30F10508F0A8
:1051200096C08827E756FF4F8F4F0C9455B788E0FD
:1051300080937B0085E480937C0080917A0080647A
:1051400080937A0081E090E054C080917800909143
:10515000790020914702309148028217930748F462
:1051600030934A0220934902909348028093470269
:105170000BC02091490230914A028217930720F414
:1051800090934A02809349022091051230910612B1
:105190002817390748F43093041220930312909390
:1051A0000612809305120BC0209103123091041255
:1051B0002817390720F4909304128093031220914A
:1051C0007800309179008091081290910912A09195
:1051D0000A12B0910B12820F931FA11DB11D809373
:1051E000081290930912A0930A12B0930B1282E056
:1051F00090E090934C0280934B0229C083E090E0B2
:10520000F8CF84E090E0F5CF85E090E0F2CF86E043
:1052100090E0EFCF87E090E0ECCF88E090E0E9CF3E
:1052200089E090E0E6CF8AE090E0E3CF8BE090E089
:10523000E0CF10924C0210924B02809107128F5FC8
:105240008093071204C010924C0210924B0280917E
:105250000712803108F4C1C02091490230914A02FE
:105260008091470290914802280F391F80910312C4
:1052700090910412280F391F809105129091061207
:10528000280F391F8091081290910912A0910A12DB
:10529000B0910B12821B930BA109B109BC01CD0186
:1052A00022E0660F771F881F991F2A95D1F723E008
:1052B00030E040E050E00E94B5C8209308123093DF
:1052C000091240930A1250930B128091A711811179
:1052D0000FC03093FE112093FD118091FF1190912A
:1052E00000129093FC118093FB1181E08093A71131
:1052F00010920712109208121092091210920A12BC
:1053000010920B1210920C1210920D1210920E129B
:1053100010920F121092101210921112109212127B
:10532000109213121092141210921512109216125B
:10533000109217121092FF11109200121092011287
:10534000109202128FEF9FEF9093480280934702D2
:1053500090934A0280934902109204121092031211
:105360001092061210920512809177129091781285
:10537000029799F52091FD113091FE1180911E0C3C
:1053800090911F0C8217930734F064E770E181E875
:1053900090E10E941C7420910302309104028091DC
:1053A000FD119091FE1182179307BCF060913712A6
:1053B00070913812072E000C880B990B0E9452C274
:1053C00020E030E0A9010E941EBA181634F463E907
:1053D00070E180EA90E10E941C74FF91EF91BF910F
:1053E000AF919F918F917F916F915F914F913F917D
:1053F0002F910F900BBE0F900FBE0F901F9018951E
:1054000010923812109237120E940A491092A61177
:105410001092A5110E94524F10923812109237121A
:105420000E940A491092A81180912E0C882341F005
:105430009FB7F894809102018F7B809302019FBFF8
:1054400008958091FD119091FE110E94B34E6093DA
:10545000391270933A1280933B1290933C1210923F
:10546000F7111092F8111092F9111092FA118FB7EA
:10547000F8941092A7118FBF08952F923F924F92E8
:105480005F926F927F928F929F92AF92BF92CF92D4
:10549000DF92EF92FF920F931F93CF93DF93CDB7DD
:1054A000DEB72C970FB6F894DEBF0FBECDBF80914C
:1054B000A711882309F492C20E94212A0E9450A5B4
:1054C00069837A838B839C83609137127091381241
:1054D000072E000C880B990B0E9452C26B017C01B5
:1054E0008090391290903A12A0903B12B0903C12EA
:1054F0009B01AC016091E5117091E6118091E7117B
:105500009091E8110E944BC28823C9F0C092E51126
:10551000D092E611E092E711F092E81101E010E07C
:1055200020E030E0A901C701B6010E941EBA18169A
:1055300014F000E010E01093F6110093F511809143
:10554000F5119091F61182309105D9F083309105D3
:1055500009F445C0019709F048C02091E511309148
:10556000E6114091E7115091E811C501B4010E9484
:105570004BC287FD3AC082E090E09093F611809391
:10558000F51120E030E040E850E46091E5117091C1
:10559000E6118091E7119091E8110E946EB79B018E
:1055A000AC01C501B4010E944BC287FF06C20E9434
:1055B00050A50091F1111091F2112091F311309149
:1055C000F411DC01CB01801B910BA20BB30BB7FDD7
:1055D000F4C183E090E09093F6118093F51166E3B7
:1055E00070E186E490E10E941C74009137121091E2
:1055F00038124090391250903A1260903B127090DD
:105600003C12B801012E000C880B990B0E9452C26B
:10561000A30192010E946EB74B015C016093E111FE
:105620007093E2118093E3119093E41120ED3CEC30
:105630004CE45DE360914302709144028091450225
:10564000909146020E94B1C26B017C012091DD1154
:105650003091DE114091DF115091E011C301B20190
:105660000E946EB79B01AC01C701B6010E94B1C296
:105670006B017C0123E333E343E75FE36091D911DE
:105680007091DA118091DB119091DC110E94B1C20E
:105690009B01AC01C701B6010E946FB76F83788789
:1056A00089879A876093D9117093DA118093DB11FF
:1056B0009093DC114092DD115092DE116092DF1167
:1056C0007092E01120E030E040E251E4C501B40105
:1056D0000E941EBA181624F481E08093D811C2C02B
:1056E00020E030E040E251ECC501B4010E944BC221
:1056F00087FD02C0012B21F481E08093D811D8C02E
:105700008091D811882351F01092D4111092D511A4
:105710001092D6111092D7111092D81120913F02F9
:10572000309140024091410250914202C501B401C2
:105730000E94B1C26B017C016093D0117093D111B2
:105740008093D2119093D3112091D4113091D5111F
:105750004091D6115091D711C501B4010E946FB785
:10576000362E272E8D839E831091260C2091270C98
:105770002C873091280C3B870091290C212F3C85E8
:105780004B85502F0E944BC287FD1BC01091220CED
:105790004091230C4C875091240C5B870091250C81
:1057A000212F342F452F502F632D722D8D819E81F7
:1057B0000E941EBA18162CF0132D2C868D818B8713
:1057C0000E81812F9C85AB85B02F8093D41190934F
:1057D000D511A093D611B093D71120910502309125
:1057E00006024091070250910802612F792F8A2FFB
:1057F000902F0E94B1C29B01AC016093CC117093B9
:10580000CD118093CE119093CF11C701B6010E94A4
:105810006FB72F81388549855A850E946EB76B0115
:105820007C0120E030E04FE753E40E941EBA20E004
:1058300030E0A9011816ECF4C501B4010E941EBAAB
:10584000181684F4A5019401612F7C858B85902F17
:105850000E946EB76093D4117093D5118093D611C6
:105860009093D711C12CD12C9FE7E92E93E4F92E08
:1058700022C0C701B6010E944BC287FF1CC020E0B6
:1058800030E0A901C501B4010E944BC287FF10C0DE
:10589000A5019401612F7C858B85902F0E946EB7A6
:1058A0006093D4117093D5118093D6119093D71132
:1058B000C12CD12C76016091200C7091210C072E07
:1058C000000C880B990B0E9452C29B01AC01C301D2
:1058D000B2010E941EBA1816CCF4609101027091B8
:1058E0000202072E000C880B990B0E9452C29B01EA
:1058F000AC01C301B2010E944BC287FF07C0C701C0
:10590000B6010E94F6B87595679501C060E0609396
:10591000A8118091311290913212A0913312B0915E
:1059200034120097A105B10529F129813A814B81F3
:105930005C81281B390B4A0B5B0B57FD1BC0609128
:10594000351270913612072E000C880B990B0E94AD
:1059500052C29B01AC01C301B2010E944BC287FF3E
:1059600007C066E570E185E690E10E941C7402C004
:105970000E940A498091ED119091EE11A091EF11D2
:10598000B091F01129813A814B815C81281B390B40
:105990004A0B5B0B57FD22C089819A81AB81BC8188
:1059A00088579C4EAF4FBF4F8093ED119093EE11EF
:1059B000A093EF11B093F01111C00E9450A5DC012B
:1059C000CB01805C9346AF4FBF4F8093F111909312
:1059D000F211A093F311B093F41107CE2C960FB6E9
:1059E000F894DEBF0FBECDBFDF91CF911F910F9115
:1059F000FF90EF90DF90CF90BF90AF909F908F90EF
:105A00007F906F905F904F903F902F9008950E94ED
:105A1000AC7D882319F00E94989CF9CF089590914D
:105A200076128091CB11913021F580FF05C0899AC3
:105A30008FEF80933A0203C0899890933A02809145
:105A4000CB1181FF03C08F9A8FEF02C08F9881E046
:105A500080933B028091CB119FB782FF05C0F894E1
:105A600080910B01826022C0F89480910B018D7FA0
:105A700026C080FF03C089988FEF02C0899A81E019
:105A800080933A028091CB1181FF03C08F988FEFF2
:105A900002C08F9A81E080933B028091CB119FB727
:105AA00082FF09C0F89480910B018D7F80930B01D8
:105AB0009FBF8FEF08C0F89480910B0182608093A4
:105AC0000B019FBF81E080933C028091CB1183FF4B
:105AD00003C016988FEF02C0169A81E080933D02B2
