:10000000C3C40000E2C40000E0C40000DEC400007D
:10001000DCC40000DAC40000D8C40000D6C400006C
:10002000D4C400000C94E34FD0C400000C943242BE
:10003000CCC40000CAC40000C8C400000C94A44F83
:10004000C4C400000C947335C0C40000BEC40000DA
:10005000BCC40000BAC40000B8C400000C94A034B2
:10006000B4C400000C94641F0C94C61FAEC40000FE
:10007000ACC40000AAC40000A8C40000A6C40000CC
:10008000A4C40000A2C40000A0C400000C948E4FC1
:100090009CC400009AC4000098C4000096C40000EC
:1000A00094C4000092C4000090C400008EC40000FC
:1000B0008CC400000C94534F88C4000086C4000018
:1000C00084C4000082C400000C941E4F7EC4000053
:1000D0007CC400007AC4000078C4000076C400002C
:1000E00074C40000D90BF20B0B0C240C3D0C600CFB
:1000F000790C7213B11CB11C7E139313AB13C31391
:10010000B11CC713B11CD813B11CE213EC13351486
:10011000B11CB11CB11CF9130D1421148A1B991BBD
:10012000C61B991BCA1BE01BCF1BD91B021C091C39
:10013000141C1F1C3C1C3E1C411C431C991D9F1D74
:10014000A21DA51DAA1DB21DBA1D271E271E271EF2
:10015000C21DC51DCE1DD71D271E271E271E271EEB
:10016000271E271EDF1DE91DF51DFF1D021E0B1E8C
:10017000141E1A1E084AD73B3BCE016E84BCBFFD3D
:10018000C12F3D6C74319ABD56833DDA3D00C77F67
:1001900011BED9E4BB4C3E916BAAAABE0000008000
:1001A0003F072C7AA5BA6CC590DA3B9365FC8BBCF3
:1001B00053F810FD3C5692834DBD879D3AB63DCB1A
:1001C000C9BF5BBE73DA0FC93F05A84CCDB2D44E90
:1001D000B93836A9020C50B9918688083CA6AAAA5B
:1001E0002ABE000000803F0000407A10F35A00A0B1
:1001F000724E18090010A5D4E80000E876481700F0
:1002000000E40B54020000CA9A3B000000E1F5052F
:10021000000080969800000040420F000000A08679
:1002200001000000102700000000E80300000000AB
:100230006400000000000A0000000000010000004F
:1002400000002C76D888DC674F0823DFC1DFAE5969
:10025000E1B1B796E5E3E453C63AE651997696E8FC
:10026000E6C28426EB898C9B62ED407C6FFCEFBC80
:100270009C9F40F2BAA56FA5F490055A2AF75C93AB
:100280006B6CF9676DC11BFCE0E40D47FEF520E6E1
:10029000B500D0ED902E0300943577050080841EC4
:1002A000080000204E0A000000C80C333333330F1F
:1002B000986E12831141EF8D2114893BE65516CFBC
:1002C000FEE6DB18D1844B381BF77C1D901DA4BBC8
:1002D000E424203284725E228100C9F124ECA1E57D
:1002E0003D276364696E6F70737578585B000D0A03
:1002F000003D00244E005D0D0A005B302E396A2E51
:1003000032303136303732363A005D0D0A005B54F8
:100310004C4F3A005D0D0A002C005B4739323A0021
:100320005D0D0A002C003A003330003238005B4784
:10033000005D0D0A00205300204600205400204D8F
:100340003800204D3900204D3500204D3400204D1F
:100350003300204D3200204D3100204D3000204729
:1003600039340020473933002047393100204739DC
:1003700030002047323000204732310020473139E9
:1003800000204731380020473137002047004733ED
:10039000382E0047383000473300473200473100DD
:1003A0004730005B00290D0A00206D6178207472CF
:1003B0006176656C2C206D6D0020616363656C2C2B
:1003C000206D6D2F7365635E3200206D6178207241
:1003D0006174652C206D6D2F6D696E002C20737417
:1003E00065702F6D6D007A00790078002028003D3F
:1003F0000024002028686F6D696E672070756C6C32
:100400002D6F66662C206D6D290D0A002028686FFF
:100410006D696E67206465626F756E63652C206D13
:10042000736563290D0A2432373D002028686F6DFB
:10043000696E67207365656B2C206D6D2F6D696E1D
:10044000290D0A2432363D002028686F6D696E67D9
:1004500020666565642C206D6D2F6D696E290D0A0F
:100460002432353D00290D0A2432343D002028680D
:100470006F6D696E672064697220696E766572744B
:10048000206D61736B3A002028686F6D696E67207C
:100490006379636C652C20626F6F6C290D0A2432BE
:1004A000333D00202868617264206C696D69747343
:1004B0002C20626F6F6C290D0A2432323D002028F7
:1004C000736F6674206C696D6974732C20626F6F32
:1004D0006C290D0A2432313D0020287265706F723C
:1004E0007420696E636865732C20626F6F6C290DD0
:1004F0000A2432303D00202861726320746F6C65DD
:1005000072616E63652C206D6D290D0A2431333DB7
:100510000020286A756E6374696F6E206465766961
:100520006174696F6E2C206D6D290D0A2431323D86
:1005300000290D0A2431313D00202873746174753F
:1005400073207265706F7274206D61736B3A002056
:100550002870726F62652070696E20696E766572B0
:10056000742C20626F6F6C290D0A2431303D0020FD
:10057000286C696D69742070696E7320696E766588
:1005800072742C20626F6F6C290D0A24363D002096
:10059000287374657020656E61626C6520696E7683
:1005A0006572742C20626F6F6C290D0A24353D0032
:1005B000290D0A24343D00202864697220706F726E
:1005C0007420696E76657274206D61736B3A0029D0
:1005D0000D0A24333D0020287374657020706F72FB
:1005E0007420696E76657274206D61736B3A0020B9
:1005F00028737465702069646C652064656C61792A
:100600002C206D736563290D0A24323D0020287368
:100610007465702070756C73652C20757365632923
:100620000D0A24313D0024303D0024242028766921
:100630006577204772626C2073657474696E6773A6
:10064000290D0A24232028766965772023207061EC
:1006500072616D6574657273290D0A2447202876CE
:100660006965772070617273657220737461746557
:10067000290D0A2449202876696577206275696CFE
:100680006420696E666F290D0A244E2028766965FC
:1006900077207374617274757020626C6F636B7312
:1006A000290D0A24783D76616C7565202873617682
:1006B00065204772626C2073657474696E67290DDA
:1006C0000A244E783D6C696E65202873617665203A
:1006D0007374617274757020626C6F636B290D0A9C
:1006E00024432028636865636B2067636F6465201B
:1006F0006D6F6465290D0A245820286B696C6C2085
:10070000616C61726D206C6F636B290D0A24482047
:100710002872756E20686F6D696E67206379636CEF
:1007200065290D0A7E20286379636C6520737461E6
:100730007274290D0A2120286665656420686F6C33
:1007400064290D0A3F202863757272656E742073E8
:100750007461747573290D0A6374726C2D78202886
:100760007265736574204772626C290D0A000D0A68
:1007700000486F6D696E67206661696C0050726F2A
:100780006265206661696C0041626F7274206475F5
:1007900072696E67206379636C6500536F667420BD
:1007A0006C696D69740048617264206C696D69746C
:1007B00000414C41524D3A20003E0D0A002C4C693C
:1007C0006D3A002C52583A002C4275663A002C00C3
:1007D0002C57506F733A002C002C4D506F733A0019
:1007E0003C446F6F72003C436865636B003C416C36
:1007F00061726D003C486F6D65003C486F6C640031
:100800003C52756E003C49646C65005D0D0A0052F7
:100810006573746F72696E672064656661756C7468
:10082000730050676D20456E6400436865636B20FC
:10083000446F6F720044697361626C656400456E59
:1008400061626C65640043617574696F6E3A20552E
:100850006E6C6F636B656400272448277C272458DF
:100860002720746F20756E6C6F636B005265736523
:100870007420746F20636F6E74696E7565005B0021
:100880005D0D0A003A002C005B5052423A000D0AFE
:1008900000496E76616C69642067636F6465204906
:1008A000443A00556E646566696E656420666565E8
:1008B000642072617465004D6F64616C2067726FB3
:1008C00075702076696F6C6174696F6E00486F6D2A
:1008D000696E67206E6F7420656E61626C6564007E
:1008E000416C61726D206C6F636B004E6F74206998
:1008F000646C6500454550524F4D2072656164201F
:100900006661696C2E205573696E67206465666147
:10091000756C74730056616C7565203C20332075CE
:100920007365630053657474696E672064697361ED
:10093000626C65640056616C7565203C203000492E
:100940006E76616C69642073746174656D656E7434
:1009500000426164206E756D62657220666F726D13
:10096000617400457870656374656420636F6D6DB4
:10097000616E64206C6574746572006572726F726A
:100980003A20006F6B0D0A0011241FBECFEFD1E299
:10099000DEBFCDBF00E00CBF14E0A0E0B2E0EEE3AC
:1009A000FEED00E00BBF02C007900D92AA33B10725
:1009B000D9F723E1AAE3B4E001C01D92A536B2073E
:1009C000E1F70E94D2520C941D6F1ACB2F923F92E6
:1009D0004F925F926F927F928F929F92AF92BF924F
:1009E000CF92DF92EF92FF920F931F93CF93DF93FB
:1009F000CDB7DEB7C059D1090FB6F894DEBF0FBE30
:100A0000CDBFCD57DF4F99838883C358D04089E34A
:100A1000EDEEF2E1DF011D928A95E9F78AE0E6E268
:100A2000F3E1AEEEB2E101900D928A95E1F7FE019D
:100A3000E559FF4F1082EB961FAE1EAEEB97ED9679
:100A40001FAE1EAEED97CB57DF4F1882C558D04072
:100A5000E5961FAEE597E9961FAEE997AC968FAD88
:100A6000AC97CD57DF4FE881F981C358D040E80FEC
:100A7000F11D7080772011F40C9470149FEB970D8A
:100A80009A3110F00C94A31C8F5FAC968FAFAC978B
:100A9000AE014B595F4FBE0165597F4FCD57DF4FB8
:100AA00088819981C358D0400E94B348882311F4AB
:100AB0000C94A51CA996CCACDDACEEACFFACA99710
:100AC000C701B6010E942B680E9478654B015C014A
:100AD0001B0180E090E00E94A4659B01AC01C7016E
:100AE000B6010E942A6420E030E048EC52E40E9403
:100AF0005D670E94C0670E9478658B01BDE47B162C
:100B000009F43AC2E0E57E1611F40C94090FF7E4FB
:100B10007F120C945F13AC968FADAC97CD57DF4F1F
:100B200068817981C358D040680F711DAE01455965
:100B30005F4FC4010E9412269C01215031092230CE
:100B4000310510F00C94091D28E28216910409F475
:100B5000DBC180F584E18816910498F491E189164F
:100B6000910408F03FC1A4E08A16910409F46EC014
:100B700008F4D0C0EAE08E16910409F45AC00C942F
:100B8000B11CFCE18F16910409F453C038F436E12E
:100B90008316910408F475C10C94B11C8EE188167B
:100BA000910409F446C096E28916910409F4B2C092
:100BB0000C94B11CADE38A16910409F49CC1F0F4C5
:100BC000E5E38E16910409F441C060F42BE282162D
:100BD000910409F466C131E38316910409F461C1FB
:100BE0000C94B11C8CE38816910410F00C94B11C89
:100BF0008AEC880D8093F41299E079C19CE58916FE
:100C0000910460F4AAE58A16910408F004C1B0E5E5
:100C10008B16910409F488C00C94B11CECE58E1677
:100C2000910439F0FFE58F16910408F417C10C9474
:100C3000B11C0115110511F00C94C51CE9962FADDE
:100C4000E997222309F43FC00C94A71C3CE123162A
:100C5000310469F148F494E02916310479F0AAE0EE
:100C60002A163104C9F055C1BEE12B16310499F1A1
:100C7000E5E32E16310409F449C04BC181E047C0B9
:100C8000FFE12F163104C0F52AE02216310431F4B9
:100C9000F1E0E996FFAFE99782E039C03CE1231625
:100CA000310409F042C121E0E9962FAFE99701151F
:100CB000110539F00A30110511F00C94B11C84E0D3
:100CC0000EC083E00CC0EEE12E163104C9F631E00F
:100CD000E9963FAFE9970115110539F485E0809356
:100CE000ED12E1961FAEE19727C10A30110511F010
:100CF0000C94B11C86E0F3CF85E32816310411F083
:100D00000C94DA1C81E0E9968FAFE99787E0809335
:100D1000ED12FFC0E996AFADE997A1110C94A71CA5
:100D2000B2E0E996BFAFE997E2E02E16310419F17F
:100D300060F421143104E1F02A94232809F0EDC075
:100D400081E08093EE12B1E0E0C036E22316310478
:100D5000B1F080E52816310409F43FC093E029166C
:100D6000310409F0DAC083E08093EE12F1E045C06F
:100D70001092EE1235C082E08093EE12CEC00E319A
:100D80001105D9F068F40431110511F00C94B11C6F
:100D900084E08093EE1221E0E1962FAFE197CCC082
:100DA0000832110591F00233110511F00C94B11CB9
:100DB00087E08093EE1291E038C085E08093EE12D8
:100DC00031E0E1963FAFE197B7C086E08093EE1245
:100DD00081E0E1968FAFE197AFC088E08093EE129B
:100DE000A1E05BC0B2E18B16910459F0E3E18E16ED
:100DF000910461F01092F212F2E0E196FFAFE197F8
:100E000090C081E08093F21222E030C082E08093B3
:100E1000F21232E032C00115110581F48AE588161C
:100E2000910439F41092F11293E0E1969FAFE197AB
:100E300083C081E08093F112A3E062C00A30110503
:100E400011F00C94B11CBAE58B16910411F40C94BA
:100E5000B11CE4E0E196EFAFE1976EC0FDE58F16BF
:100E6000910441F481E08093EF1225E0E1962FAFE9
:100E7000E19757C01092EF1235E0E1963FAFE1974E
:100E800050C084E18816910429F481E08093F01227
:100E900096E02DC01092F012A6E0E196AFAFE19778
:100EA00040C0E996BFADE997B1110C94A71CE1E3EE
:100EB0002E16310459F41092F312F8E0E196FFAFC8
:100EC000E19723E0E9962FAFE99736C00A30110584
:100ED00011F00C94B11C81E08093F31238E0E1969C
:100EE0003FAFE19783E0E9968FAFE99725C0E196A0
:100EF0009FAFE19716C0012B11F00C94B11CAAE032
:100F0000E196AFAFE19718C0B7E0E196BFAFE197C8
:100F100008C0E1961FAEE19704C0E1E0E196EFAFB3
:100F2000E197012B49F00C94D81CE1961FAEE19794
:100F3000F1E0E996FFAFE99781E090E0E1960FAC30
:100F4000E19702C0880F991F0A94E2F7ED962EAD43
:100F50003FADED9728233923232B19F085E10C941D
:100F6000091DED962EAD3FADED97282B392BED9653
:100F70003FAF2EAFED9772CD672B11F00C94D81CBC
:100F8000AC968FADAC97CD57DF4FE881F981C35850
:100F9000D040E80FF11D3EEA831638E0930608F0D2
:100FA0005AC08CEA881688E0980608F0C4C69BE40C
:100FB000891698E0990609F4D5C130F5B3EE8B1681
:100FC000B7E09B0609F494C180F432E183169104E2
:100FD00009F48EC18CEC8816910409F428C191E1C2
:100FE0008916910409F08EC090C0A9E48A16A8E081
:100FF0009A0609F49FC108F0A4C128E4821628E0EB
:10100000920609F451C17EC032EA831638E0930695
:1010100009F424C298F49AE9891698E0990609F42B
:10102000D8C1ABE98A16A8E09A0609F4FAC1B9E971
:101030008B16B8E09B0609F065C0A5C1E6EA8E16DE
:10104000E8E09E0608F477C6F7EA8F16F8E09F06F8
:1010500009F440C257C022EC821628E0920638F507
:1010600030EC831638E0930608F065C688EB8816E6
:1010700088E0980609F43BC368F4AEEA8A16A8E053
:101080009A0609F42DC2B7EB8B16B8E09B0609F45B
:101090001BC338C029EB821628E0920609F438C336
:1010A0003AEB831638E0930609F445C62BC08BE66D
:1010B000881689E0980609F49FC490F4A1E68A1680
:1010C000A9E09A0609F436C4BAE68B16B9E09B0685
:1010D00009F449C420E6821629E0920699F43BC33C
:1010E00034E7831639E0930609F4FEC485E78816D1
:1010F00089E0980609F450C59CE6891699E099069E
:1011000009F4A9C481E090E018C68A9A8091080188
:101110008160809308015F9A0E942C2B8FE080935E
:1011200011128EE1EFECF2E1DF011D928A95E9F7F1
:101130000E94BC430E94235280E090E00E9405413F
:101140006093ED117093EE118093EF119093F01175
:1011500081E090E00E9405416093F1117093F211DB
:101160008093F3119093F41182E090E00E94054186
:101170006093F5117093F6118093F7119093F81125
:101180000091D3121091D4122091D5123091D61221
:101190000093F9111093FA112093FB113093FC1175
:1011A0000091D7121091D8122091D9123091DA12F1
:1011B0000093FD111093FE112093FF113093001244
:1011C0000091DB121091DC122091DD123091DE12C1
:1011D0000093011210930212209303123093041211
:1011E00020E030E044EB52E40E942A647B018C0151
:1011F0002091F1113091F2114091F3115091F411BD
:101200006091ED117091EE118091EF119091F011BC
:10121000EDE08E2EE2E19E2EF9E0AF2EF2E1BF2E40
:10122000A5E0CA2EA2E1DA2E0E94253E84C58E01D9
:101230000F5F1F4F1F930F938DE092E09F938F934B
:10124000FF93EF930E94F1680F900F900F900F9013
:101250000F900F90181619060CF01CC41D8A1E8AD8
:101260001F8A188EAE014B5E5F4F60E070E0C801D0
:101270000E94B3488823C9F14D895E896F89788DB2
:1012800088E70E94301D4D895E896F89788D89E7D6
:101290000E94301D4D895E896F89788D8AE70E9492
:1012A000301D0E946C3847C58E010F5F1F4F1F9382
:1012B0000F9384E292E09F938F93FF93EF930E94AA
:1012C000F1680F900F900F900F900F900F901816DD
:1012D00019060CF0DFC3AE014B5E5F4F60E070E0BB
:1012E000C8010E94B348811106C082E390E025C581
:1012F0000E94D74F20C520E030E04AE754E46D89D2
:101300007E898F89988D0E945D670E94736516168D
:10131000170684F47093C20D6093C10D11E0109311
:10132000C00D8091FD0D811106C50E94B02410935F
:10133000FD0D01C51092C00D1092C20D1092C10D8D
:10134000FAC48081863589F681818053823068F6BF
:1013500010921512813019F010921412ECC480937F
:101360001412E9C48081863509F0BFCF8181805392
:10137000823008F0BACF813019F010921812DBC415
:1013800080931812D8C480818E3409F0AECF918139
:101390009053943008F0A9CF923061F0933099F0D7
:1013A00080911112913019F05F9A846028C08A9A56
:1013B000816025C08091080181608093080180913F
:1013C000111282601CC00E942C2B80911112886027
:1013D00016C080818E3409F088CF9181905394306B
:1013E00008F083CF923071F09330A9F08091111200
:1013F000913019F05F988B7F02C08A988E7F80931E
:10140000111299C4809108018E7F80930801809108
:1014100011128D7FF4CF0E945F2580911112877F7A
:10142000EECF80818E3409F060CF8181805384308B
:1014300008F05BCF90911112823051F0833059F057
:10144000813019F090FF39C135C191FD33C135C1EB
:1014500092FD30C132C193FF30C12CC11AA619A62A
:101460001D8A1E8A1F8A188E8E010F5F1F4F8AE009
:10147000D8011D928A95E9F7CE0189969F938F93A3
:101480001F930F938DE292E09F938F93FF93EF93BF
:101490000E94F1680FB6F894DEBF0FBECDBF029771
:1014A0000CF4F8C2AE014B5E5F4F60E070E0C80123
:1014B0000E94B348882309F418CF2D893E894F89AB
:1014C000588D69A57AA5072E000C880B990B0E94F0
:1014D000CB2431C48FEF0E945C1E0E944B242BC48E
:1014E000A5961CAE1DAE1EAE1FAEA597A1961CAE56
:1014F0001DAE1EAE1FAEA1976D961CAE1DAE1EAEEC
:101500001FAE6D9784E15E0129E2A20EB11CD501E8
:10151000282F1D922A95E9F77E0135E1E30EF11C93
:10152000D701282F1D922A95E9F7DE0111966D014A
:101530001D928A95E9F78E0107591F4F8FEF90E0B2
:10154000D8018D939C931F930F93DF92CF92FF92BC
:10155000EF92BF92AF9289E392E09F938F93FF93B4
:10156000EF930E94F1680FB6F894DEBF0FBECDBFB7
:1015700003970CF48FC2AE014F595F4F60E070E0EB
:10158000C5010E94B348882309F4AFCEAE01435A87
:101590005F4F60E070E0C7010E94B348882309F400
:1015A000A4CEAE01475A5F4F60E070E0C6010E94D2
:1015B000B348882309F499CED8018D919C91009766
:1015C000D9F1019709F091CEA596CCACDDACEEAC8B
:1015D000FFACA59720E030E044EB52E4A1966CAD5F
:1015E0007DAD8EAD9FADA1970E942A6421EE3EE2B3
:1015F00045E652E40E940B654B015C010E940865C0
:101600009B01AC01C701B6010E945D67A5966CAF56
:101610007DAF8EAF9FAFA597C501B4010E94E06773
:101620009B01AC01C701B6010E945D67A1966CAF3A
:101630007DAF8EAF9FAFA197AE01475A5F4FBE01FE
:10164000635A7F4FCE018F599F4F0E941B3B6D966F
:10165000ECACFDAC0EAD1FAD6D97A1962CAD3DADC4
:101660004EAD5FADA197A5966CAD7DAD8EAD9FAD36
:10167000A597FE01FD964F01DE01AF5ABF4F5D01F8
:1016800078966F010E946F3C2196ECACFDAC0EADDC
:101690001FAD219765962CAD3DAD4EAD5FAD659705
:1016A00069966CAD7DAD8EAD9FAD69970E94D53FBB
:1016B000882319F068E272E002C069E873E08BECFD
:1016C0009DE00E94BC6837C38081863509F00DCE4D
:1016D00081818053823008F008CE813019F00E9459
:1016E000272429C39C9A9D9AA49AA59824C38081F3
:1016F000863509F0FACD81818053823008F0F5CD2E
:10170000813019F00E94242416C33F9A479813C3CE
:101710008081863509F0E9CD81818053823008F0DF
:10172000E4CD813019F00E94132405C3809101019A
:1017300080628093010180910101806480930101A6
:101740008091020180628093020180910201806495
:1017500080930201F0C28081833509F0C6CD81817A
:10176000E0EDE80FE83008F0C0CD8E2F90E0FC01EE
:101770003197E730F10530F48827EE58FF4F8F4F4F
:101780000C9490680E945F251092E0111092DF1176
:101790008AE999E1A5E9B2E48093E5119093E61115
:1017A000A093E711B093E8118AE999E9A2E6B2E4BF
:1017B000B8C00E945F2581E090E09093E011809393
:1017C000DF1186EF98E2ACE4B2E48093E5119093E8
:1017D000E611A093E711B093E8118DEC9CECA0E822
:1017E000B2E49FC00E945F2582E090E09093E011F8
:1017F0008093DF1189E29CEDA4E9B2E48093E511C6
:101800009093E611A093E711B093E81180E090E087
:10181000A2E6B2E486C00E945F2583E090E0909348
:10182000E0118093DF1180E090E0ACE2B2E48093BD
:10183000E5119093E611A093E711B093E81180E0D1
:1018400090E0ABE8B2E46DC00E945F2584E090E0D8
:101850009093E0118093DF1180E090E0ACE1B2E47E
:101860008093E5119093E611A093E711B093E811EE
:1018700080E090E0A9E9B2E418C00E945F2585E00D
:1018800090E09093E0118093DF118DEC9CECA2E945
:10189000B2E48093E5119093E611A093E711B09321
:1018A000E81180E090E0A8E9B2E48093E111909320
:1018B000E211A093E311B093E4110E94372599C07F
:1018C0000E945F2586E090E09093E0118093DF1105
:1018D00086E696E6AAE9B2E48093E5119093E611D4
:1018E000A093E711B093E81180E090E0AAE5B2E49C
:1018F00018C00E945F2587E090E09093E0118093EC
:10190000DF1185E89BEEABECB1E48093E511909399
:10191000E611A093E711B093E81180E090E0A2E314
:10192000B2E48093E1119093E211A093E311B0939C
:10193000E4115FC080E090E00E94B8409093BE1137
:101940008093BD1181E090E00E94B8409093C01157
:101950008093BF1182E090E00E94B8409093BC1148
:101960008093BB11E6C16091DB127091DC12809113
:10197000DD129091DE120E94A665E4966CAF7DAFF9
:101980008EAF9FAFE4976091D7127091D81280917B
:10199000D9129091DA120E94A6652B013C01609148
:1019A000D3127091D4128091D5129091D6120E94C8
:1019B000A665DE0111964D01FE0175965F019E013F
:1019C000275D3F4F6901E496ECACFDAC0EAD1FAD59
:1019D000E497A30192010E94873F89819A81AB819C
:1019E000BC818093E5119093E611A093E711B09329
:1019F000E8110E9471249FC11D8A1E8A1F8A188EB9
:101A00008E010F5F1F4F84E1D8011D928A95E9F77F
:101A10001F930F938BE592E09F938F93FF93EF9328
:101A20000E94F1680F900F900F900F900F900F9001
:101A3000181619067CF5AE014B5E5F4F60E070E052
:101A4000C8010E94B348882309F44FCC8D899E8930
:101A5000AF89B88D66CF1D8A1E8A1F8A188E8E01A7
:101A60000F5F1F4F84E1D8011D928A95E9F71F93FC
:101A70000F9386E692E09F938F93FF93EF930E94DC
:101A8000F1680F900F900F900F900F900F90181615
:101A9000190674F01F9281E08F9388E192E09F9382
:101AA0008F930E9408430F900F900F900F901DCCC2
:101AB000AE014B5E5F4F60E070E0C8010E94B3482A
:101AC000882309F412CC8D899E89AF89B88D8093C3
:101AD000E9119093EA11A093EB11B093EC110E94DD
:101AE00071240E94372527C18081803509F0FDCB04
:101AF00081818053833008F0F8CB8130D9F0823077
:101B000091F180E090E00E94B84090934704809368
:101B1000460481E090E00E94B8409093490480938D
:101B2000480482E090E00E94B84090934B04809378
:101B30004A0401C180E090E00E94B84090934104C3
:101B40008093400481E090E00E94B8409093430469
:101B50008093420482E090E00E94B8409093450454
:101B600080934404E8C080E090E00E94B8409093E5
:101B70003B0480933A0481E090E00E94B840909347
:101B80003D0480933C0482E090E00E94B840909332
:101B90003F0480933E04CFC0609146047091470497
:101BA000E0904804F09049049B012E293F29809140
:101BB0004A0490914B04822B932B892B19F481E7D3
:101BC00092E019C0C0904004D0904104809042043B
:101BD00090904304E0914404F0914504E296FFAFF5
:101BE000EEAFE297C601882999298E2B9F2B892B6E
:101BF00049F487E792E09F938F930E9408430F90E8
:101C00000F9073CBA0903A04B0903B0400913C0439
:101C100010913D049501202B312B80913E04909131
:101C20003F04822B932B892B19F48DE792E0E3CFAD
:101C300080E090E00E94A46524EE35E24EE652E496
:101C40000E942B642B013C01B50180E090E00E94D2
:101C5000A46520E33CE44AEB52E40E942B649B0120
:101C6000AC01C301B2010E942B642B013C01B601FF
:101C700080E090E00E94A4659B01AC01C301B20129
:101C80000E942B6420E030E040E450E40E940B65A9
:101C900020E030E040E05FE30E942B640E94786522
:101CA0007093BE116093BD11B70180E090E00E9477
:101CB000A4652CE93DE241E853E40E942A646B01EB
:101CC0007C01B80180E090E00E94A46524E53AE13F
:101CD00046E953E40E942B649B01AC01C701B601A5
:101CE0000E942B646B017C01B40180E090E00E94B3
:101CF000A4659B01AC01C701B6010E942B6420E0E2
:101D000030E040E450E40E940B6520E030E040E029
:101D10005FE30E942B640E9478657093C01160930A
:101D2000BF11E2962EAD3FADE2973093BC112093E8
:101D3000BB110E94B84180E090E09C012150310924
:101D40002230310510F00C94091D36E023163104C1
:101D500028F483E02816310488F024C098E029167E
:101D6000310410F40C94B11CAAE02A163104C8F115
:101D7000BEE12B16310411F00C94B11CE2E02E16DA
:101D8000310459F0FEE12F16310439F02328E1F532
:101D900081E08093F5122BE02CC082E08093F51255
:101DA0003BE02EC084E02816310461F095E029164E
:101DB000310481F081E08093F712ACE0E196AFAF9F
:101DC000E1975DC482E08093F712BCE0E196BFAF7B
:101DD000E19755C41092F712ECE0E196EFAFE1976E
:101DE0004EC4F9E02F16310441F082E08093F612E0
:101DF0002DE0E1962FAFE19742C41092F6123DE03C
:101E0000E1963FAFE1973BC48BE0E1968FAFE1975E
:101E100036C4672B11F00C94D81CB7EB8B16B8E0C6
:101E20009B0609F458C3B8F5FCE98F16F8E09F0645
:101E300009F4C6C0D8F439E9831638E0930609F4EA
:101E4000B2C038F498E9891698E0990609F454C0AC
:101E500050C0AAE98A16A8E09A0609F4A7C0BBE90F
:101E60008B16B8E09B0609F4A4C043C0EEE98E16B9
:101E7000E8E09E0609F4AAC008F4A5C02CEA821680
:101E800028E0920609F4C1C13DEA831638E09306C2
:101E900009F459C22EC082EC881688E09806D8F45E
:101EA00090EC891698E0990608F0DCC3A9EB8A1635
:101EB000A8E09A0609F46EC308F461C3EAEB8E1633
:101EC000E8E09E0609F46EC3FBEB8F16F8E09F0670
:101ED00009F473C30EC023EC821628E0920609F4BD
:101EE00085C308F471C380E6881689E0980609F472
:101EF000A3C381E090E0BBC384E16E0199E2C90E07
:101F0000D11CD601E82F1D92EA95E9F77E01F5E193
:101F1000EF0EF11CD701E82F1D92EA95E9F79E011B
:101F20002F5F3F4F1901D9011D928A95E9F780E093
:101F300090E00E940541C158DF4F688379838A830E
:101F40009B83CF57D04081E090E00E9405412B0158
:101F50003C0182E090E00E9405414B015C0186015A
:101F600024E045E0C158DF4F688179818A819B81F7
:101F7000CF57D0400E94AF61870124E045E0C30104
:101F8000B2010E94AF61810124E045E0C501B401C6
:101F90000E94AF61FF92EF92DF92CF923F922F9219
:101FA00083E892E03BC381E992E005C083EC9DE0C9
:101FB00002C08FE992E09F938F938AE992E044C335
:101FC00086EA92E0F8CF8DEA92E0F5CFAC968FAD3D
:101FD000AC97CD57DF4FE881F981C358D040E80F67
:101FE000F11D80818E3409F040C381818053C15836
:101FF000DF4F8883CF57D040843008F036C36D96CA
:102000001CAE1DAE1EAE1FAE6D9769961CAE1DAE0A
:102010001EAE1FAE699765961CAE1DAE1EAE1FAEFE
:10202000659784E11E01FDE32F0E311CD101E82FDD
:102030001D92EA95E9F7FE01B996DF01282F1D925E
:102040002A95E9F77497DF01282F1D922A95E9F761
:10205000DE011196AE96BFAFAEAFAE971D928A95D8
:10206000E9F76091DB127091DC128091DD129091A2
:10207000DE120E94A665C757DF4F688379838A8383
:102080009B83C958D0406091D7127091D81280912B
:10209000D9129091DA120E94A6652B013C01609141
:1020A000D3127091D4128091D5129091D6120E94C1
:1020B000A665FE01EF5AFF4F4F019E012B5A3F4F7D
:1020C0005901DE01A75ABF4F6D01C757DF4FE880A6
:1020D000F9800A811B81C958D040A30192010E9456
:1020E0000A3F20E030E044EB52E465966CAD7DADF4
:1020F0008EAD9FAD65970E942B6465966CAF7DAFEA
:102100008EAF9FAF65978091DF119091E01104979A
:10211000029748F48090BC0D9090BD0DA090BE0D2C
:10212000B090BF0D24C023E333E343E35FE360914A
:1021300000027091010280910202909103020E94BC
:102140002A6420E030E040E05FE30E945D6720E029
:1021500030E044E353E40E945D679B01AC0160E022
:1021600070E084E393E40E942A644B015C016D9665
:102170006CAD7DAD8EAD9FAD6D97810124E045E0E6
:102180000E94AF617E01B9E2EB0EF11C69966CAD65
:102190007DAD8EAD9FAD6997870124E045E00E943B
:1021A000AF616E01E5E1CE0ED11C65966CAD7DADE3
:1021B0008EAD9FAD6597860124E045E00E94AF613A
:1021C0000451110924E045E0C501B4010E94AF614A
:1021D000C158DF4FF881CF57D040F23051F0F33083
:1021E00059F0F13019F0DF92CF920CC03F922F924C
:1021F00009C0FF92EF9206C021E030E02C0F3D1F96
:102200003F932F9386EB92E01FC269961CAE1DAEE2
:102210001EAE1FAE699765961CAE1DAE1EAE1FAEFC
:10222000659721961CAE1DAE1EAE1FAE219784E1B0
:10223000DE019996AE96BFAFAEAFAE97E82F1D9276
:10224000EA95E9F71E01F5E12F0E311CD101E82FC7
:102250001D92EA95E9F79E012F5F3F4FE0963FAF51
:102260002EAFE097D9011D928A95E9F780E090E0C2
:102270000E9405412B013C0181E090E00E94054154
:10228000C158DF4F688379838A839B83CF57D040BF
:1022900082E090E00E94054120E030E044EB52E40F
:1022A0000E942A64FE01FD964F019E012F5A3F4F66
:1022B0005901DE01AB5ABF4F6D017B018C01C15842
:1022C000DF4F288139814A815B81CF57D040C301DC
:1022D000B2010E94253EA401B501C6010E94C63B81
:1022E00069966CAD7DAD8EAD9FAD69978E01075D32
:1022F0001F4F24E045E00E94AF6165966CAD7DAD57
:102300008EAD9FAD6597810124E045E00E94AF61ED
:1023100021966CAD7DAD8EAD9FAD21970451110915
:1023200024E045E00E94AF611F930F933F922F92EC
:10233000AE96FFADAE97FF93AD962FADAD972F93B1
:102340008AEB92E06BC169961CAE1DAE1EAE1FAE4D
:10235000699765961CAE1DAE1EAE1FAE65972196A1
:102360001CAE1DAE1EAE1FAE219784E1DE01999614
:10237000AE96BFAFAEAFAE97E82F1D92EA95E9F7E4
:102380001E01F5E12F0E311CD101E82F1D92EA95B7
:10239000E9F79E012F5F3F4FE0963FAF2EAFE097EA
:1023A000D9011D928A95E9F780E090E00E940541ED
:1023B000C158DF4F688379838A839B83CF57D0408E
:1023C00081E090E00E940541C757DF4F6883798321
:1023D0008A839B83C958D04082E090E00E940541E7
:1023E00020E030E044EB52E40E942A642B013C01DF
:1023F000FE01FD964F019E012F5A3F4F5901CE011C
:102400008B5A9F4F6C0183017201C757DF4F2881A0
:1024100039814A815B81C958D040C158DF4F6881FA
:1024200079818A819B81CF57D0400E94253EA401AB
:10243000B501C6010E94C63B69966CAD7DAD8EADFF
:102440009FAD69976596CCACDDACEEACFFAC659703
:102450009B01AC010E945D674B015C01A7019601E5
:10246000C701B6010E945D679B01AC01C501B401C3
:102470000E942B640E94EA678E01075D1F4F24E0D3
:1024800045E00E94AF6120E030E044EB52E4C3013C
:10249000B2010E942B64810124E045E00E94AF61FB
:1024A00021966CAD7DAD8EAD9FAD21970451110984
:1024B00024E045E00E94AF611F930F933F922F925B
:1024C000AE96BFADAE97BF93AD96EFADAD97EF9320
:1024D00088EC92E0A3C0A49B59C0CE0101967C0178
:1024E0006E0191E1C90ED11C87018FE30E942C245B
:1024F000D7018D939D937D01CA16DB06B1F720E0CD
:1025000030E040E0842F90E0B901680F791F673018
:102510007105BCF4880F991FD801A80FB91F6D91E0
:102520007C9111970296F801E80FF91F8081918143
:102530008617970720F48D939C93718360834F5F78
:10254000E1CF2F5F3F4F28303105D9F62D813E81F5
:102550008F819885820F931F29853A85820F931F5B
:102560002B853C85820F931F969587959695879529
:102570008A30910558F08734910530F009C04799A9
:1025800005C00898009904C082E01CC080E01AC011
:1025900081E018C082B386958695869591E089275B
:1025A000817010C08BE30E942C2421E085369105B8
:1025B00008F420E01F922F9345C08091020185FB13
:1025C000882780F91F923DC08091C0118F93809120
:1025D000BF118F938091BE118F938091BD118F9306
:1025E0008091BC118F938091BB1115C080E090E069
:1025F0000E94B840182F092F81E090E00E94B84057
:10260000F82EE92E82E090E00E94B840EF92FF920F
:102610000F931F939F938F9386ED92E09F938F93D9
:102620008BEC9DE09F938F930E94C3680FB6F89444
:10263000DEBF0FBECDBF16C08091E0118F93809199
:10264000DF118F9389E793E09F938F938BEC9DE04D
:102650009F938F930E94C3680F900F900F900F90DD
:102660000F900F9080E090E002C082E390E09C0128
:10267000215031092230310510F00C94091D81E000
:1026800090E0E1960FACE19702C0880F991F0A9481
:10269000E2F7ED962EAD3FADED9728233923232B9E
:1026A00011F00C94AE07ED96AEADBFADED97A82B33
:1026B000B92BED96BFAFAEAFED970C942E05872DDD
:1026C000770C990BAA0BBB0BFC01E654F109E53121
:1026D000F10510F00C94B11C8827E758FF4F8F4F7D
:1026E0000C949068C092F812D092F912E092FA120B
:1026F000F092FB12E1961FAEE197BBC0C092FC12B4
:10270000D092FD12E092FE12F092FF12CB57DF4FF3
:10271000B881C558D040B160CB57DF4FB883C5589A
:10272000D040E1E0A3C0C0920013D0920113E09228
:102730000213F0920313CB57DF4FF881C558D040F6
:10274000F260CB57DF4FF883C558D04022E0E196C6
:102750002FAFE1978EC0C0920413D0920513E09280
:102760000613F0920713CB57DF4F3881C558D0407E
:102770003460CB57DF4F3883C558D04083E0E196B3
:102780008FAFE19776C08092081394E056C0C701DE
:10279000B6010E9473656093091370930A138093C6
:1027A0000B1390930C13A5E0E196AFAFE19761C0D6
:1027B000C0920D13D0920E13E0920F13F0921013EB
:1027C000B6E04FC0C0921113D0921213E0921313CF
:1027D000F0921413E7E04AC0C0921513D09216137A
:1027E000E0921713F0921813F8E0E196FFAFE1972B
:1027F00040C0C0921A13D0921B13E0921C13F092A7
:102800001D13E5962FADE5972160E5962FAFE5976F
:102810003AE0E1963FAFE1972CC0C0921E13D092F0
:102820001F13E0922013F0922113E5968FADE597E8
:102830008260E5968FAFE5979BE0E1969FAFE197C9
:1028400018C0C0922213D0922313E0922413F09266
:102850002513E596AFADE597A460E596AFAFE59794
:10286000BCE0E196BFAFE19704C0E9E0E196EFAFCD
:10287000E19701E010E0E1960FACE19702C0000F94
:10288000111F0A94E2F7EB968EAD9FADEB97802374
:102890009123892B11F00C94A91C81E693E0E19619
:1028A0000FACE19702C0959587950A94E2F780FFF7
:1028B0000BC020E030E0A901C701B6010E94046509
:1028C00087FF02C00C94AB1CEB962EAD3FADEB978F
:1028D000202B312BEB963FAF2EAFEB970C942E05B0
:1028E000E5963FADE597332349F0E9968FADE9973B
:1028F000811104C092E0E9969FAFE997EA96AFADE7
:10290000EA97A5FF0FC08091091390910A13A09137
:102910000B13B0910C1380389649A849B10514F0F7
:102920000C94AD1C8091EF12813069F4E996FFADF3
:10293000E997F230E1F5EA962FADEA9720FD02C063
:102940000C94B71C34C080912713811130C0EA96D3
:102950003FADEA9730FF1BC08091F012813039F50E
:1029600023E333E34BEC51E46091F8127091F912D8
:102970008091FA129091FB120E945D676093F812A9
:102980007093F9128093FA129093FB1210C0809109
:10299000341390913513A0913613B091371380936F
:1029A000F8129093F912A093FA12B093FB12EB96DF
:1029B0008EAD9FADEB9790FD10C08091301390913C
:1029C0003113A0913213B091331380931513909368
:1029D0001613A0931713B09318138091ED12813042
:1029E00089F4EA969FADEA9796FD03C08CE10C94BA
:1029F000091DEB96AEADBFADEB97AF7BEB96BFAFCE
:102A0000AEAFEB978091F212882311F1813081F4FF
:102A1000B1E0C158DF4FB883CF57D040CD57DF4F1B
:102A20001882C358D040E2E0E196EFAFE1971FC0B3
:102A3000C158DF4F1882CF57D040F2E0CD57DF4F5B
:102A4000F883C358D04021E0E1962FAFE1970FC043
:102A500032E0C158DF4F3883CF57D04081E0CD57A7
:102A6000DF4F8883C358D040E1961FAEE197809135
:102A7000F012813031F0E9969FADE9979330D1F5AE
:102A80002FC01DEEE12E12E1F12E00E010E0E596E0
:102A9000AFADE597CA2ED12CC601002E02C0959588
:102AA00087950A94E2F780FF12C023E333E34BECEF
:102AB00051E4F70165A576A587A590A90E945D67F9
:102AC000D7019D966D937D938D939C93D0970F5FC7
:102AD0001F4FB4E0EB0EF11C03301105E9F6CBCF2C
:102AE0008091F312813031F4E596EFADE597E43053
:102AF00009F035C78CE0E9E4F3E1DE0111960190BD
:102B00000D928A95E1F7ED962EAD3FADED9731FD33
:102B100008C01091ED121230B9F0183009F4C4C099
:102B20002DC18091F412873010F08DE172C7909121
:102B30002C13891771F3BE016F5F7F4F0E943C1EFB
:102B4000882309F420C7E5CFE5963FADE59731111D
:102B500002C08AE15EC7EB968EAD9FADEB978075A4
:102B60009927892B09F442CF60910D1370910E13B0
:102B700080910F13909110130E942B680E9478652A
:102B8000673098F680910813843141F0823009F063
:102B9000E8C6EA968FADEA9787FDE3C6EB96AEAD41
:102BA000BFADEB97AF7AEB96BFAFAEAFEB976623B7
:102BB00021F033243A94360E02C03090F412BE0154
:102BC0006B5E7F4F832D0E943C1E882309F4DBC679
:102BD000209008134090611350906213609063132B
:102BE00070906413ADEEAA2EA2E1BA2E8E010B5E98
:102BF0001F4FB6E2CB2EB3E1DB2EE12CF12CE59694
:102C0000BFADE5978B2E912CC4010E2C02C095957B
:102C100087950A94E2F780FF36C0E4E12E1229C0BE
:102C2000D6019F962D913D914D915C91D2975796EB
:102C30006D917D918D919C915A970E942A64F50126
:102C400025A536A547A550A90E942A64D8016D93F1
:102C50007D938D939C931397B2E0EB1214C0A30164
:102C600092010E942A64F8016083718382839383B6
:102C70000AC0F50185A596A5A7A5B0A9F80180838E
:102C80009183A283B383FFEFEF1AFF0A24E0A20E21
:102C9000B11C0C5F1F4F34E0C30ED11C83E0E8165B
:102CA000F10409F0B1CF27C1E5969FADE5979923CF
:102CB00009F44FCF409061135090621360906313FA
:102CC00070906413E6E2AE2EE3E1BE2E8E010F5F3C
:102CD0001F4FFDEEEF2EF2E1FF2EC12CD12C892EDD
:102CE000912CC4010C2C02C0959587950A94E2F7AB
:102CF00080FF29C0D8012D913D914D915C91F50146
:102D00006789708D818D928D0E942A64D7019D966E
:102D10002D913D914D915C91D0970E942A64F701CD
:102D200065A776A787A790ABF2E0CF1216C0A301E4
:102D300092010E942A64D7019D966D937D938D9395
:102D40009C93D0970AC0F50187A590A9A1A9B2A923
:102D5000F70185A796A7A7A7B0ABFFEFCF1ADF0AA9
:102D600024E0A20EB11C0C5F1F4F34E0E30EF11CF7
:102D700083E0C816D10409F0B4CFBCC0E9969FAD7A
:102D8000E997933009F488C0E596AFADE597AA239B
:102D900009F435C60091F11220906113309062134E
:102DA000409063135090641366E2862E63E1962E82
:102DB0007DEEC72E72E1D72EFE0131967F01A12C48
:102DC000B12C6A2E712CC3010A2C02C095958795EF
:102DD0000A94E2F780FD0BC0F4018789908DA18DE4
:102DE000B28DF60185A796A7A7A7B0AB43C0173051
:102DF00009F440C001112BC0D4019F962D913D9143
:102E00004D915C91D297F7016081718182819381AC
:102E10000E942B64D6019D962D913D914D915C9120
:102E2000D0970E942B64F60165A776A787A790AB81
:102E3000F2E0AF121FC0A20191010E942B64D601E3
:102E40009D966D937D938D939C93D09713C0F401C1
:102E50002789308D418D528DD6019D966D917D9142
:102E60008D919C91D0970E942B64F60165A776A75F
:102E700087A790ABFFEFAF1ABF0A24E0820E911C28
:102E800034E0C30ED11C84E0E80EF11C93E0A916D7
:102E9000B10409F098CF24C0153089F0173029F11A
:102EA000133041F5E596AFADE597A11103C0E99662
:102EB0001FAEE997BE016B5E7F4F86E00CC0E596C2
:102EC000BFADE597B11103C0E9961FAEE997BE010A
:102ED0006B5E7F4F87E0D0D6882309F454C50AC0C3
:102EE0001530A9F3173009F086C58091EE128230B3
:102EF00008F039C5312C1091EE12183069F4E596BE
:102F0000EFADE597EE2309F4B3C2E996FFADE9977B
:102F1000F13009F02AC5BBC2E9962FADE9972230FE
:102F200009F0A6C2111107C0E5963FADE59733231E
:102F300009F4A3C2ACC220E030E0A9016091F8120C
:102F40007091F9128091FA129091FB120E9404651F
:102F5000882309F40CC5143048F4123058F41130A9
:102F600009F095C2E5968FADE59785C2183008F453
:102F700074C28DC2E5969FADE597992309F4E9CD1A
:102F8000E196BFADE197AB2FB0E0ED96BFAFAEAF2E
:102F9000ED97CD57DF4FF881C358D040EF2FF0E0C9
:102FA000C757DF4FF983E883C958D04081E090E0EC
:102FB0007C01E1960FACE19702C0EE0CFF1C0A9475
:102FC000E2F7CD57DF4F0880C358D04002C0880FCA
:102FD000991F0A94E2F7E82AF92AE5962FADE597BA
:102FE000822F90E08E219F21892B09F4C2C4CD014C
:102FF000880F991F880F991FFC01E351FD4EDC01DA
:10300000AA5DBC4E57962D913D914D915C915A977A
:1030100065A576A587A590A90E942A644B015C014D
:10302000C757DF4F88819981C958D040880F991FB1
:10303000880F991FFC01E351FD4EDC01AA5DBC4ED7
:1030400057962D913D914D915C915A9765A576A526
:1030500087A590A90E942A64E8966CAF7DAF8EAFD9
:103060009FAFE897EB96CEACDFACEB9730E8C3228E
:10307000DD24EA968FADEA9787FF08C1EB96AEADE7
:10308000BFADEB97AF77EB96BFAFAEAFEB970E94BC
:10309000495E882311F081E2BCC48091F012813036
:1030A000B1F423E333E34BEC51E4609111137091DD
:1030B000121380911313909114130E945D67609313
:1030C0001113709312138093131390931413409061
:1030D0001113509012136090131370901413A501E4
:1030E0009401C501B4010E945D67CB57DF4F68832F
:1030F00079838A839B83C558D040E8962CAD3DAD3B
:103100004EAD5FADE897CA01B9010E945D67C35734
:10311000DF4F688379838A839B83CD58D04020E03A
:1031200030E040E850E4C301B2010E945D67A301B2
:1031300092010E945D67CB57DF4F288139814A8118
:103140005B81C558D0400E942A64C357DF4F288155
:1031500039814A815B81CD58D0400E942A646B013D
:103160007C0120E030E0A9010E94046587FD03C4D2
:10317000C701B6010E94EA676B017C01C357DF4FAC
:10318000288139814A815B81CD58D040CB57DF4FB0
:10319000688179818A819B81C558D0400E942B64C7
:1031A0000E94EA679B01AC01C701B60190580E94DA
:1031B0000B656B017C01133021F4F7FAF094F7F8FA
:1031C000F09420E030E0A901C301B2010E9404653F
:1031D00087FF0FC0F7FAF094F7F8F094D301C2011B
:1031E000B0588093111390931213A0931313B093BC
:1031F0001413ED960EAD1FADED97000F111F000FCC
:10320000111F0F501D4EE8962CAD3DAD4EAD5FAD7C
:10321000E897C701B6010E945D679B01AC01C5013B
:10322000B4010E942A6420E030E040E05FE30E94A5
:103230005D67F8016387748785879687C757DF4F77
:1032400008811981C958D040000F111F000F111FAC
:103250000F501D4EA5019401C701B6010E945D6784
:10326000E8962CAD3DAD4EAD5FADE8970E942B6466
:1032700020E030E040E05FE30E945D67D8011B96EC
:103280006D937D938D939C931E9701C1CB57DF4F18
:10329000B881C558D0406B2E712CE620F720EF285E
:1032A00009F46BC3EB96EEADFFADEB97E17FEB96C8
:1032B000FFAFEEAFEB978091F012813009F489C037
:1032C000ED96EEADFFADED97EE0FFF1FEE0FFF1F7A
:1032D000EF50FD4EC384D484E584F684A7019601A3
:1032E000C501B4010E942A642B013C01C757DF4F7E
:1032F000E881F981C958D040EE0FFF1FEE0FFF1F84
:10330000EF50FD4E83859485A585B685EF968CAFED
:103310009DAFAEAFBFAFEF979C01AD01E8966CAD2E
:103320007DAD8EAD9FADE8970E942A644B015C0194
:10333000A3019201C301B2010E945D672B013C0110
:10334000A5019401C501B4010E945D679B01AC0118
:10335000C301B2010E942B640E94EA674B015C0129
:10336000A7019601C701B6010E945D676B017C0150
:10337000EF962CAD3DAD4EAD5FADEF97CA01B901F3
:103380000E945D679B01AC01C701B6010E942B64DE
:103390000E94EA676B017C01609311137093121312
:1033A00080931313909314139B01AC01C501B401D6
:1033B0000E942A644B015C01E894B7F82AE037EDDB
:1033C00043EA5BE3C501B4010E942267181644F189
:1033D0005EC00DEE12E1C3010C2C02C095958795DD
:1033E0000A94E2F780FF12C023E333E34BEC51E48D
:1033F000D8011F966D917D918D919C9152970E945D
:103400005D67F8016787708B818B928BFFEFCF1A16
:10341000DF0A0C5F1F4F23E0C216D104E1F650CF44
:1034200020E030E040E05FE3C501B4010E94226784
:1034300018160CF430CE2FE632E143E85AE3C70108
:10344000B6010E945D679B01AC01C501B4010E94F9
:10345000226718160CF41FCE1AC0E5963FADE5970B
:10346000332309F476CB0E94495E811114CE0FC03C
:10347000E9968FADE99781110AC0EB968EAD9FADAD
:10348000EB978E7D9C7FE9961FAEE99706C0EB9681
:103490008EAD9FADEB978E7D907E892B09F06FC22C
:1034A0008091091390910A13A0910B13B0910C1302
:1034B0008093391390933A13A0933B13B0933C132A
:1034C0008091EF12809327138091F8129091F91256
:1034D000A091FA12B091FB1280933413909335139C
:1034E000A0933613B0933713C0901513D0901613D2
:1034F000E0901713F0901813A70196016091301314
:103500007091311380913213909133130E940465AE
:103510008823F9F010912F13112359F08091D012C4
:10352000823039F00E942C5EB701A601812F0E94E3
:1035300009388091151390911613A0911713B0912B
:1035400018138093301390933113A0933213B093D8
:10355000331380911913809338131091F7128091CF
:103560002F138117B9F08091D012823079F0C0907A
:103570003013D0903113E0903213F09033130E9447
:103580002C5EB701A601812F0E9409388091F712A5
:1035900080932F131091F61280912E13811781F0D2
:1035A0008091D012823041F00E942C5E123011F4D2
:1035B0005C9A02C00E94D0528091F61280932E1322
:1035C0008091ED12813079F08091F21280932A136C
:1035D0008091F01280932813E9969FADE99793307C
:1035E00009F073C053C08091D012823069F380908B
:1035F0000D1390900E13A0900F13B090101320E0B5
:1036000030E040EA51E4C501B4010E945D670E94C8
:10361000E1650E9478656B017C010E942C5E20E0D0
:1036200030E04AE754E4C501B4010E945D674B01F4
:103630005C0182E38C9DB0018D9D700D112480E0B2
:1036400090E00E94A4659B01AC01C501B4010E94F9
:103650002A640E94E1650E947865CB010E94A84817
:10366000C114D10409F4B0CF8AD5A1E0CA1AD10897
:103670008091CF128111A8CFBFEFE0E7F2E0B15007
:10368000E040F040E1F700C00000EACF8091F31283
:1036900080932B13813089F480912213909123130E
:1036A000A0912413B091251380936113909362131A
:1036B000A0936313B093641308C010926113109227
:1036C000621310926313109264138091F41290911C
:1036D0002C13981759F080932C138CE0FE0131962F
:1036E000A9E4B3E101900D928A95E1F78091F1127E
:1036F00080932913E091ED128E2F90E0FC01329718
:10370000E830F10508F05CC08827E257FF4F8F4F83
:103710000C949068BE016B5E7F4F832DA4D2809184
:103720002C1338124DC08CE0FE017596A9E4B3E16C
:103730003BC0E9962FADE997222371F02091341315
:1037400030913513409136135091371300E06AE100
:1037500073E181E00E949E4920913413309135132A
:10376000409136135091371300E0BE016B5E7F4FDE
:1037700081E00E949E49182F8CE0FE017596ADE312
:10378000B3E101900D928A95E1F71BC06DE373E1FF
:1037900086E003C06DE373E187E065D211C08CE081
:1037A000EAE1F3E1A5E5B3E101900D928A95E1F735
:1037B00007C08CE0E5E5F3E1DF011D928A95E9F7AA
:1037C00010E08091EE1280932613883009F46CC0CB
:1037D000E996BFADE997B23009F066C090E0883055
:1037E000910508F058C0FC014090341350903513F7
:1037F00060903613709037138827EA56FF4F8F4F2B
:103800000C94906800E0A30192016AE173E180E00A
:1038100007C000912713A30192016AE173E181E0DF
:103820000E949E49182F37C0609111137091121396
:1038300080911313909114138824839409C060918C
:103840001113709112138091131390911413812C02
:10385000C158DF4FA880CF57D040CD57DF4FC88029
:10386000C358D040E196EFACE19700912713A30134
:1038700092010E941D5F0FC000E001C001E020E046
:1038800004C000E001C001E021E040912713C30122
:10389000B2010E94875E8CE0EAE1F3E1ADE3B3E1BF
:1038A00001900D928A95E1F78091F51280932D1386
:1038B000882309F466C00E942C5E90912D1380919C
:1038C000D012913061F48230D9F19FB7F894809191
:1038D0007E12886080937E129FBF51D431C091E0E8
:1038E0009093261310922A131092291310922713E3
:1038F00010922C1310922F1310922E138230A1F0DD
:10390000BE016F5F7F4F80E0B7D18823E1F18CE08B
:10391000FE013196A9E4B3E101900D928A95E1F799
:103920000E9402380E94D0528EE798E00E94A14384
:1039300082E298E00E94A1438BE098E00E94A143BC
:1039400010922D131EC081E064C082E062C088E145
:1039500060C089E15EC084E05CC08BE15AC085E252
:1039600058C084E156C08EE154C08FE152C086E158
:1039700050C080E24EC082E24CC083E24AC084E282
:1039800048C0812F46C087E044C0AEE12A1631040A
:1039900011F40C946B0620F5EAE02E16310411F4B4
:1039A0000C944C06FCE12F16310411F40C945706CC
:1039B00087E12FC09CE52916310411F00C9495077E
:1039C00091E0E9969FAFE9970115110531F00A30B2
:1039D000110539F689E00C946F0688E00C946F06A7
:1039E00025E32216310411F40C9486063CE52316D7
:1039F000310451F3DDCF133009F07CCA5BCA1530B6
:103A000009F462CA173009F470CA133009F072CA97
:103A10004ECAC057DF4F0FB6F894DEBF0FBECDBF02
:103A2000DF91CF911F910F91FF90EF90DF90CF909A
:103A3000BF90AF909F908F907F906F905F904F90CE
:103A40003F902F90089569E080E090E00E94295215
:103A50004DE450E060E872E181E098E00C944B5254
:103A6000CF92DF92EF92FF92CF93DF93C82F6A013C
:103A70007B0120E030E0A901C701B6010E94046586
:103A800087FDE3C0C43608F441C08CE98C0F20E008
:103A9000833098F590E0880F991F880F991F223086
:103AA00079F0FC01233011F1213019F0E058FD4E7E
:103AB00002C0E457FD4EC082D182E282F382C2C0CE
:103AC000EC01C856DD4E20E030E040E752E4C7018B
:103AD000B6010E945D6720E030E040E752E40E94BA
:103AE0005D67688379838A839B83ACC0EC55FD4E08
:103AF000F7FAF094F7F8F094DECF2F5F8A3008F4ED
:103B0000A6C0243009F4A3C08A50C2CFC701B601B1
:103B10000E942B680E9478658C2F90E08C31910573
:103B200008F095C0FC018827E256FF4F8F4F0C9498
:103B30009068633008F48DC06093B01283C06093C6
:103B4000B31280C06093B11202C06093B2120E949F
:103B50008B3478C08091BD12662311F084604CC014
:103B60008B7F4AC08091BD12662311F0806444C0EF
:103B70008F7B42C08091BD12662311F080683CC0EB
:103B80008F773AC06093B4125DC0C092B512D092E4
:103B9000B612E092B712F092B81254C0C092B912A5
:103BA000D092BA12E092BB12F092BC124BC080913C
:103BB000BD12662311F081601FC08E7F1DC08091F1
:103BC000BD12662321F084FF46C0806215C08F7D40
:103BD00013C08091BD12662311F0886001C0877FF9
:103BE0008093BD120E9411522DC08091BD12662398
:103BF00011F0806101C08F7C8093BD1223C060935F
:103C0000BE1220C0C092BF12D092C012E092C11268
:103C1000F092C21217C0C092C312D092C412E092A6
:103C2000C512F092C6120EC070E07093C812609375
:103C3000C71208C0C092C912D092CA12E092CB1229
:103C4000F092CC1200DF80E007C084E005C083E082
:103C500003C086E001C08AE0DF91CF91FF90EF9032
:103C6000DF90CF9008952DE0829FC00111244CE099
:103C700050E0965F0C944B521F93CF93DF93182F15
:103C8000EB018DE0189FB0011124765F4CE050E00D
:103C9000CE010E948E52892B51F48CE0FE011192CC
:103CA0008A95E9F7BE01812FDEDF80E001C081E067
:103CB000DF91CF911F910895EF92FF920F931F9381
:103CC000CF93DF93CDB7DEB72C970FB6F894DEBF56
:103CD0000FBECDBF182F80FFC6C08AE08093B01200
:103CE0008FEF8093B3121092B11287E08093B212DB
:103CF00083E08093B4128AE097EDA3E2BCE3809363
:103D0000B5129093B612A093B712B093B8128FE683
:103D100092E1A3E0BBE38093B9129093BA12A0930F
:103D2000BB12B093BC121092BE1280E090E0A8ECDF
:103D3000B1E48093BF129093C012A093C112B093CC
:103D4000C21280E090E0AAEFB3E48093C312909394
:103D5000C412A093C512B093C6128AEF90E090935C
:103D6000C8128093C71280E090E0A0E8BFE3809380
:103D7000C9129093CA12A093CB12B093CC1284E0D4
:103D80008093BD1280E090E5A3E4B7E480938012B5
:103D900090938112A0938212B09383128093841225
:103DA00090938512A0938612B09387128093881205
:103DB00090938912A0938A12B0938B1280E090E5C1
:103DC000A3ECB7E480938C1290938D12A0938E1283
:103DD000B0938F128093901290939112A0939212AD
:103DE000B09393128093941290939512A09396128D
:103DF000B093971280E090E4A2E9B5E48093981222
:103E000090939912A0939A12B0939B1280939C1254
:103E100090939D12A0939E12B0939F128093A01234
:103E20009093A112A093A212B093A31280E090E409
:103E3000ACE1B6EC8093A4129093A512A093A612C5
:103E4000B093A7128093A8129093A912A093AA12DC
:103E5000B093AB128093AC129093AD12A093AE12BC
:103E6000B093AF12F0DD11FF0FC0CE0101967C01BF
:103E70008CE0F70111928A95E9F700E0B701802FF5
:103E8000F2DE0F5F0830D1F712FF0AC060E080E079
:103E90009BE00E94295260E081E59BE00E9429524C
:103EA00013FF05C060E08EEA9BE00E9429522C9629
:103EB0000FB6F894DEBF0FBECDBFDF91CF911F913B
:103EC0000F91FF90EF9008951F920F920FB60F92EF
:103ED00011240BB60F922F933F934F935F936F93E1
:103EE0007F938F939F93AF93BF93EF93FF938091B3
:103EF000C6008F33A9F050F4883109F1813211F5F1
:103F00009FB7F89480917E12886015C0803471F05C
:103F10008E37C1F49FB7F89480917E1282600BC0F7
:103F20009FB7F89480917E12816005C09FB7F89486
:103F300080917E12806280937E129FBF14C00E9487
:103F4000734911C0E091350D91E09E0F903809F44E
:103F500090E02091340D921731F0F0E0EC54F34FE3
:103F600080839093350DFF91EF91BF91AF919F9119
:103F70008F917F916F915F914F913F912F910F9012
:103F80000BBE0F900FBE0F901F9018951F920F92AF
:103F90000FB60F9211240BB60F928F939F93EF934E
:103FA000FF938091B70DE82FF0E0E95CF24F90812C
:103FB0009093C6008F5F803809F480E08093B70D3E
:103FC0009091360D891305C08091C1008F7D80933B
:103FD000C100FF91EF919F918F910F900BBE0F90B9
:103FE0000FBE0F901F901895E091360D91E09E0F37
:103FF000903831F490E004C020917E1224FD0FC06F
:104000002091B70D2917C1F3F0E0E95CF24F8083EE
:104010009093360D8091C10080628093C100089515
:10402000CF93C82F8BE799E00E94A143C830B9F124
:1040300090F4C43059F148F4C23001F120F5C13098
:1040400009F042C083E699E01BC0C63011F120F5AB
:1040500084E299E015C0C43171F140F4CA3029F10D
:1040600008F1CB3089F58EE893E02BC0C63131F1F1
:10407000F8F0C23349F588E993E023C081E599E07F
:104080000E94A14328C08FE399E0FACF85E399E02D
:10409000F7CF85E199E0F4CF84EF98E0F1CF8BEE94
:1040A00098E0EECF80EE98E0EBCF8DEC98E0E8CF93
:1040B00087EB98E0E5CF83E993E003C083EA98E0DB
:1040C000DFCF0E94B04307C081E998E00E94A1437E
:1040D0008C2F0E9493438EE898E0CF910C94A143DB
:1040E0008F929F92AF92BF92EF92FF920F931F9386
:1040F000CF9388E898E00E94A1438FEDE82E82E1FB
:10410000F82E00E812E1C0E0F70161917191819110
:1041100091917F01F80181909190A190B1908F01D0
:104120000E94A665A50194010E940B650E94484368
:10413000C23021F086E898E00E94A143CF5FC330EF
:1041400019F784E898E00E94A1438091EB120E9445
:10415000934380E898E0CF911F910F91FF90EF90EB
:10416000BF90AF909F908F900C94A1439FB7F8940D
:1041700080917E12826080937E129FBF08953F924D
:104180004F925F926F927F928F929F92AF92BF9267
:10419000CF92DF92EF92FF920F931F93CF93DF9313
:1041A000CDB7DEB768970FB6F894DEBF0FBECDBFB0
:1041B00001E099E2A92E28E0722E30E2632E40E160
:1041C000B42E50E4552E62E0462E1091CE121123EB
:1041D00009F45BC00093D01211FF07C081EB97E098
:1041E0000E94A14386EA97E023C012FF07C081EB3B
:1041F00097E00E94A1438BE997E01AC013FF07C024
:1042000081EB97E00E94A14388E897E011C014FF7A
:1042100007C081EB97E00E94A1438DE797E008C0BB
:1042200015FF10C081EB97E00E94A14381E797E062
:104230000E94A1438EE697E00E94A14384EF91E0A3
:104240000E94A84810FD08C08FB7F8949091CE1234
:104250001092CE128FBF19C08EE798E00E94A14342
:104260008CE698E00E94A1438BE098E00E94A14375
:104270009FB7F89480917E128F7E80937E129FBFAD
:1042800080917E1284FFFCCFDFCF10917E1211232C
:1042900009F4BDC114FF04C081E08093CF12C8C1EE
:1042A00010FFF0C08CE0E3EDF2E1DE011D9601901D
:1042B0000D928A95E1F78091D0128430E9F040F4B4
:1042C0008130E9F080F0823009F586EE97E01CC07D
:1042D000803179F018F4883049F018C0803291F0BC
:1042E000803421F013C085E098E00EC080E098E0B3
:1042F0000BC08AEF97E008C084EF97E005C08DEE11
:1043000097E002C080EE97E00E94A1438091B41232
:10431000837039F0BE01635F7F4FCE0101960E942A
:10432000F6418091B41280FD05C08091B41281FFE6
:104330006BC01CC089ED97E00E94A143CE0101969D
:104340007C01D12CF70161917191819191917F0153
:104350000E944843F2E0DF1621F087ED97E00E94CB
:10436000A143D39423E0D212EDCFDFCF80ED97E0CD
:104370000E94A14389E4C82E83E1D82ECE01019684
:104380007C01312C4701F6016191719181919191EC
:104390006F0120853185428553850E942B649B01E6
:1043A000AC01F70160817181828193810E942A644E
:1043B000F7016083718382839383F2E03F120FC021
:1043C00020916113309162134091631350916413F3
:1043D0000E942A64F7016083718382839383F4E0EF
:1043E000EF0EF11CF40160817181828193810E9442
:1043F0004843F2E03F1621F08EEC97E00E94A14383
:10440000339423E03212BECF8091B41282FF0EC0EB
:1044100088EC97E00E94A1438091EB109091EA1004
:10442000891708F48E5E891B0E9493438091B41211
:1044300083FF0EC083EC97E00E94A1439091340D5E
:104440008091350D891708F48058891B0E94934389
:104450008091B41284FF0AC08DEB97E00E94A143C3
:104460000E941A5043E062E00E94564389EB97E0B5
:104470000E94A1439FB7F89480917E128E7F809313
:104480007E129FBF812F887609F444C08091D0129C
:10449000882349F0982F9C77A9F1883021F40E9455
:1044A000712B0093D1128091D012811102C04092E1
:1044B000D11216FF09C0883011F45092D0128091A9
:1044C000D11288608093D11213FF05C08091D01261
:1044D00085FFB092D01215FF15C08EE798E00E94BC
:1044E000A1438AE298E00E94A1438BE098E00E94F9
:1044F000A1438091D11281FD146084608093D11218
:104500006092D0129FB7F89480917E128779809341
:104510007E129FBF11FF57C0812F887609F04BC0D4
:104520008091D012882339F0807509F444C08091BD
:10453000D11281FF40C08091D11282FF20C08091B2
:104540002F13882371F040913013509131136091F3
:104550003213709133130E94093880EA9FE00E9461
:10456000A84880912E13882351F0823011F45C9A70
:1045700002C00E94D05288EE93E00E94A848809129
:10458000EA109091EB10981791F0A89EC0011124A9
:10459000885F914F892B59F08091D11283FD07C01C
:1045A0007092D0120E94932B0E94D63702C01092B4
:1045B000D0121092D1129FB7F89480917E128D7F05
:1045C00080937E129FBF12FF22C08091D012807311
:1045D00091F08091D21281110EC08091D11282FF90
:1045E00004C00E9402380E94D0528091D112826091
:1045F0008093D11204C01092D1121092D0129FB7A2
:10460000F89480917E128B7F80937E129FBF809161
:10461000D0128C7711F00E94932B9091D012809140
:10462000D112903219F481FDB092D0128111CDCD0A
:1046300068960FB6F894DEBF0FBECDBFDF91CF9165
:104640001F910F91FF90EF90DF90CF90BF90AF90B0
:104650009F908F907F906F905F904F903F900895C4
:104660002091050E3091060E21153105B9F080918B
:10467000030E9091040E8217930734F401969093E1
:10468000040E8093030E0AC01092040E1092030EC3
:104690001092060E1092050E109212122091C10D6A
:1046A0003091C20D21153105A1F08091010E90913C
:1046B000020E8217930734F401969093020E8093B2
:1046C000010E07C01092020E1092010E81E080933D
:1046D00013128091121281111BC08091C00D8111A3
:1046E00017C0809173008E7F809373001092FD0D30
:1046F0001092060E1092050E1092C20D1092C10D6E
:104700001092040E1092030E1092020E1092010EDF
:1047100008958091000E811107C081E08093000E02
:1047200080910B01806205C01092000E80910B01F8
:104730008F7D80930B018091FE0D9091FF0D9C0168
:104740002F5F3F4F3093FF0D2093FE0D2091040209
:10475000309105022817390748F41092FF0D109286
:10476000FE0D809170008E7F809370000895CF932E
:10477000DF93EB018431D1F028F4882361F08C3091
:10478000A8F437C08233E9F018F4873190F10EC0F5
:10479000833311F10BC08881882329F06DE973E020
:1047A000CE010E94B1686FE973E020C08881882340
:1047B00029F06DE973E0CE010E94B16862EA73E00E
:1047C00015C08881882329F06DE973E0CE010E942D
:1047D000B16866EA73E00AC08881882329F06DE930
:1047E00073E0CE010E94B1686AEA73E0CE010E94D4
:1047F000B1688091CB0D882379F06BEC7DE0CE0120
:104800000E94B16882E3EBECFDE0DF011D928A9526
:10481000E9F7DF91CF91089560E473E0CE01DF9175
:10482000CF910C94B168E1E0F1E0808180628083F7
:10483000808180648083E2E0F1E080818F7D8083ED
:1048400080818F7B808308953F9A479A08959C9A30
:104850009D9AA498A59A0895863308F0865390915E
:104860007B00282F2870977F922B90937B00877076
:10487000806480937C0080917A00806480937A00C9
:1048800080917A0086FFFCCF80917800209179009A
:1048900090E0922B08958091040187788093040121
:1048A000809103018877803451F46EEA73E083ECE1
:1048B0009DE00E94BC6840E050E0BA010EC08091CB
:1048C0000301887761F465EB73E083EC9DE00E945F
:1048D000BC6840E050E060EE70E483E0C1D80C9426
:1048E0006C380F931F93CF93DF936091DF1184E8AF
:1048F00093E00E9429526091E01185E893E00E94C4
:104900002952C1EED1E188E993E069918C010F5FF2
:104910001F4F0E942952C8010C391340B1F7C5EE50
:10492000D1E18EE893E069918C010F5F1F4F0E94E7
:104930002952C80102391340B1F7C9EED1E182E82A
:104940009CE069918C010F5F1F4F0E942952C801A2
:1049500006381C40B1F7DF91CF911F910F91089558
:10496000E0E2F2E180E393E2918380831092200100
:1049700085E08093210181EF9FEF93838283828181
:1049800093819093250180932401E3E7F0E08081F7
:10499000816080830895CF92DF92EF92FF920F9310
:1049A0001F93CF93DF9369017A01EAE0F1E0208160
:1049B00020622083EBE0F1E020812F7D2083660FD1
:1049C000771F709305026093040209E112E189E800
:1049D00093E2F80191838083C0E7D0E088818E7FE5
:1049E0008883E0EBF0E080818C7F8083E1EBF0E076
:1049F0008081877F8083A6EBB0E08C918F7D8C9344
:104A000088818D7F888380818460808380818C7F92
:104A1000808320E034E244EF59E4C701B6010E94EC
:104A20000B6520E034E244E75BE40E945D6720E030
:104A300030E040E85CE30E945D670E94736520E01F
:104A400031E0C901861B970BF80193838283828131
:104A500093818093B200888181608883DF91CF91B8
:104A60001F910F91FF90EF90DF90CF90089580916C
:104A7000DF119091E0110497029700F51092BC0DA0
:104A80001092BD0D1092BE0D1092BF0D80910701C6
:104A90008F7D8093070180910801806280930801D7
:104AA0008091020180628093020160E070E084EBFB
:104AB00093E40E94DA3881E08093161208951092F0
:104AC000B80D1092B90D1092BA0D1092BB0D0E9444
:104AD000884F109216120C94884F8F929F92AF922B
:104AE000BF92CF92DF92EF92FF926B017C0120E0A8
:104AF00030E044EB53E40E94226718160CF489C09E
:104B000020E030E0A901C701B6010E94046587FDDD
:104B100080C08091DF119091E0110497029798F581
:104B20002091BC0D3091BD0D4091BE0D5091BF0D37
:104B3000C701B6010E942A644B015C01C092BC0D02
:104B4000D092BD0DE092BE0DF092BF0D20E030E09E
:104B5000A9010E942267181624F4809102018F7D1A
:104B600003C080910201806280930201C501B401FB
:104B70009F77FF90EF90DF90CF90BF90AF909F9086
:104B80008F900C94DA3820E030E044E353E4C7011E
:104B9000B6010E94226718161CF4C12CD12C760194
:104BA000A701960160E070E084E393E40E942A6428
:104BB00020E030E044E353E40E940B659B01AC012C
:104BC0000E942B6423E333E343E35FE30E942B64FF
:104BD000609300027093010280930202909303029B
:104BE00020E030E048EA51E40E940B6520E030EC20
:104BF0004FE754E40E945D670E947865CB01FF9007
:104C0000EF90DF90CF90BF90AF909F908F900C94DB
:104C1000DD4EFF90EF90DF90CF90BF90AF909F90D0
:104C20008F9008952F923F924F925F926F927F9252
:104C30008F929F92AF92BF92CF92DF92EF92FF92AC
:104C40000F931F93CF93DF93CDB7DEB7CA5AD10925
:104C50000FB6F894DEBF0FBECDBF8A3928E09207A9
:104C600009F4FBC040F4843DE7E09E0771F0893908
:104C70009840A1F1D2C48C3928E0920709F4FCC114
:104C80008D39984009F4DFC2C8C41A821982CE0156
:104C900001969F938F9387E592E09F938F937F93E5
:104CA0006F930E94F1680F900F900F900F900F90EC
:104CB0000F90181619060CF0ECC289819A81909316
:104CC000060E8093050E11E0109312128091FD0DD7
:104CD0008111A6C445DE1093FD0DA2C48E010B5EAA
:104CE0001F4F1F930F937E0189E2E80EF11CFF9284
:104CF000EF923E019DE3690E711C7F926F922E012F
:104D0000E1E54E0E511C5F924F928CEB93E09F9326
:104D10008F937F936F930E94F1680FB6F894DEBF74
:104D20000FBECDBF04970CF4B4C2EF961CAE1DAEFF
:104D30001EAE1FAEEF97E5961CAE1DAE1EAE1FAEAB
:104D4000E597AB961CAE1DAE1EAE1FAEAB97A196FF
:104D50001CAE1DAE1EAE1FAEA197CE0101961C016A
:104D60008CE0F10111928A95E9F7AE0145585F4F49
:104D700060E070E0C2010E94B348882309F450C487
:104D8000AE014F585F4F60E070E0C3010E94B3482E
:104D9000882309F445C4AE0149595F4F60E070E0D3
:104DA000C7010E94B348882309F43AC4AE01435AAC
:104DB0005F4F60E070E0C8010E94B348882309F4A7
:104DC0002FC420E030E044EB52E4E5966CAD7DADBD
:104DD0008EAD9FADE5970E942A6421EE3EE245E646
:104DE00052E40E940B652B013C01E5966CAF7DAF50
:104DF0008EAF9FAFE5970E940865EF96CCACDDAC17
:104E0000EEACFFACEF97A70196010E945D67698346
:104E10007A838B839C83C301B2010E94E0679B016C
:104E2000AC01C701B6010E945D676D837E838F83ED
:104E30009887AB968CAD9DADAEADBFADAB97898776
:104E40009A87AB87BC87A1962CAD3DAD4EAD5FADCB
:104E5000A19700E0B10181E0DCC3E5961CAE1DAE78
:104E60001EAE1FAEE597AB961CAE1DAE1EAE1FAEBE
:104E7000AB979E012F5F3F4F79013F932F938E0198
:104E80000B5E1F4F1F930F93CE0185589F4FCF5539
:104E9000DF4F99838883C15AD0409F938F9385EECB
:104EA00093E09F938F937F936F930E94F1680FB667
:104EB000F894DEBF0FBECDBF03970CF4EAC1AE017C
:104EC0004F585F4F60E070E0C8010E94B3488823EC
:104ED00009F4A6C3AE0149595F4F60E070E0C70115
:104EE0000E94B348882309F49BC3A1961CAE1DAE53
:104EF0001EAE1FAEA19765961CAE1DAE1EAE1FAEB8
:104F0000659721961CAE1DAE1EAE1FAE21971E01E9
:104F1000F9E22F0E311C8CE0F10111928A95E9F72C
:104F2000609101127091021280910312909104120B
:104F30000E94A6652B013C016091FD117091FE114C
:104F40008091FF11909100120E94A665CD55DF4F10
:104F5000688379838A839B83C35AD0406091F91117
:104F60007091FA118091FB119091FC110E94A6653D
:104F70009E01235C3F4F4901FE01EF5AFF4F5F0145
:104F8000205E3F4F690183017201CD55DF4F2881BB
:104F900039814A815B81C35AD0400E940A3FED9615
:104FA0008EAD9FADED978130910569F1F4F4892BB9
:104FB00009F07CC120E030E044EB52E4E5966CADB2
:104FC0007DAD8EAD9FADE5970E942A647B018C017B
:104FD000E5966CAF7DAF8EAF9FAFE59765962CAD34
:104FE0003DAD4EAD5FAD65972DC082309105F1F0BE
:104FF000039709F05BC1E5966CAD7DAD8EAD9FADBD
:10500000E5976BDD0DC32196ECACFDAC0EAD1FAD8D
:10501000219765962CAD3DAD4EAD5FAD6597E5969C
:105020006CAD7DAD8EAD9FADE59712C02196ECAC19
:10503000FDAC0EAD1FAD2197E5962CAD3DAD4EAD4F
:105040005FADE597A1966CAD7DAD8EAD9FADA1979F
:10505000FE01F1964F0134975F0161010E94253EE8
:10506000A401B501C1010E94C63BAB962CAD3DAD7C
:105070004EAD5FADAB97CAC28E010B5E1F4F1F9343
:105080000F937E01F9E2EF0EF11CFF92EF923E01C9
:105090002DE3620E711C7F926F922E0131E5430E5B
:1050A000511C5F924F928DEF93E09F938F937F936C
:1050B0006F930E94F1680FB6F894DEBF0FBECDBFAC
:1050C00004970CF4E6C0EF961CAE1DAE1EAE1FAEEC
:1050D000EF97E5961CAE1DAE1EAE1FAEE597AB96E4
:1050E0001CAE1DAE1EAE1FAEAB97A1961CAE1DAE84
:1050F0001EAE1FAEA197AE0145585F4F60E070E055
:10510000C2010E94B348882309F48AC2AE014F58F5
:105110005F4F60E070E0C3010E94B348882309F448
:105120007FC2AE0149595F4F60E070E0C7010E9445
:10513000B348882309F474C2AE01435A5F4F60E05C
:1051400070E0C8010E94B348882309F469C26091E5
:1051500001127091021280910312909104120E9428
:10516000A6652B013C016091FD117091FE118091AB
:10517000FF11909100120E94A665CD55DF4F688304
:1051800079838A839B83C35AD0406091F9117091CF
:10519000FA118091FB119091FC110E94A6659E016D
:1051A000275F3F4F4901FE0135965F0128503109C5
:1051B000690183017201CD55DF4F288139814A8110
:1051C0005B81C35AD0400E94873FA401B501C6014C
:1051D0000E94C63BEF962CAD3DAD4EAD5FADEF9757
:1051E00069817A818B819C810E942B6469837A8397
:1051F0008B839C83E5962CAD3DAD4EAD5FADE597C1
:105200006D817E818F8198850E942B646D837E8362
:105210008F839887AB962CAD3DAD4EAD5FADAB9710
:1052200069857A858B859C850E942B6469877A873E
:105230008B879C87A1962CAD3DAD4EAD5FADA19700
:1052400000E0B601E5C13E013DE5630E711C7F92B1
:105250006F922E0187E6480E511C5F924F928E018D
:105260000F581F4F1F930F937E019BE7E90EF11C10
:10527000FF92EF928CEB93E09F938F937F936F93CA
:105280000E94F1680FB6F894DEBF0FBECDBF049741
:1052900084F41F9281E08F9388E192E09F938F9333
:1052A0000E9408430F900F900F900F9082E390E0C0
:1052B000B9C1C356DF4F188219821A821B82CD5999
:1052C000D040C756DF4F188219821A821B82C959F3
:1052D000D040CB56DF4F188219821A821B82C559E3
:1052E000D040CF56DF4F188219821A821B82C159D3
:1052F000D0401E01F1E52F0E311C8CE0F10111921E
:105300008A95E9F7AE0143565F4F60E070E0C70150
:105310000E94B348882309F483C1AE0147565F4F0A
:1053200060E070E0C8010E94B348882309F478C1A6
:10533000AE014B565F4F60E070E0C2010E94B3487F
:10534000882309F46DC1AE014F565F4F60E070E0F5
:10535000C3010E94B348882309F462C1C357DF4FD9
:10536000188219821A821B82CD58D040C757DF4F4E
:10537000188219821A821B82C958D040CB57DF4F3E
:10538000188219821A821B82C558D040609101127E
:105390007091021280910312909104120E94A665EE
:1053A0002B013C016091FD117091FE118091FF1164
:1053B000909100120E94A665CD55DF4F68837983D6
:1053C0008A839B83C35AD0406091F9117091FA117E
:1053D0008091FB119091FC110E94A6659E012B57B4
:1053E0003F4F4901FE01E757FF4F5F01285F3F4FE5
:1053F000690183017201CD55DF4F288139814A81CE
:105400005B81C35AD0400E940A3F210138E0430E1D
:10541000511C310184E0680E711C60910112709181
:10542000021280910312909104120E94A665CD553C
:10543000DF4F688379838A839B83C35AD04060910E
:10544000FD117091FE118091FF11909100120E9448
:10545000A665C955DF4F688379838A839B83C75AC2
:10546000D0406091F9117091FA118091FB119091E7
:10547000FC110E94A665420153016101CD55DF4F29
:10548000E880F9800A811B81C35AD040C955DF4F9B
:10549000288139814A815B81C75AD0400E94873F69
:1054A000A201B301C1010E94C63BF101608171817B
:1054B00082819381C480D580E680F7809B01AC0116
:1054C0000E945D674B015C01A7019601C701B6010F
:1054D0000E945D679B01AC01C501B4010E942B6471
:1054E0000E94EA67C356DF4F288139814A815B8178
:1054F000CD59D0400E942B642B013C01C356DF4F95
:10550000688379838A839B83CD59D040C756DF4F08
:10551000288139814A815B81C959D040CB57DF4FFF
:10552000688179818A819B81C558D0400E942B6413
:1055300021EE3EE245E652E40E940B654B015C0120
:105540000E9408659B01AC01C301B2010E945D6726
:105550006B017C01F1016083718382839383C501B8
:10556000B4010E94E0679B01AC01C301B2010E943B
:105570005D67F1016483758386839783CB56DF4F24
:10558000288139814A815B81C559D0406085718508
:10559000828593850E942B64F101608771878287E1
:1055A00093878E01035C1F4F24E045E0C701B601DD
:1055B0000E94AF61F10164817581868197810451F8
:1055C000110924E045E00E94AF61F1016085718519
:1055D000828593850451110924E045E00E94AF6162
:1055E000C356DF4F688179818A819B81CD59D04034
:1055F0000451110924E045E00E94AF61CF56DF4F0E
:10560000288139814A815B81C159D04000E0B101D4
:1056100080E00E949E4990E005C081E090E002C0D9
:1056200080E090E0C655DF4F0FB6F894DEBF0FBEA6
:10563000CDBFDF91CF911F910F91FF90EF90DF9041
:10564000CF90BF90AF909F908F907F906F905F9022
:105650004F903F902F9008958091DF119091E0112D
:105660000497029780F48091010180628093010188
:105670008091010180648093010180910201806228
:1056800080930201089580E18093A1001092A00010
:1056900082E080937D1280E29EE490937C1280935E
:1056A0007B129093A7008093A60082E18093A100D3
:1056B00020E030E048EA51E460910002709101027C
:1056C00080910202909103020E940B6520E030EC71
:1056D0004FE754E40E945D670E947865CB010C940B
:1056E000DD4ECF93DF93C0918E11D0918F11209713
:1056F000B9F081E0809391116091A7117091A81188
:105700008091A9119091AA119B01AC010E945D6743
:10571000698B7A8B8B8B9C8B10928F1110928E11D0
:10572000DF91CF9108952F923F924F925F926F92A7
:105730007F928F929F92AF92BF92CF92DF92EF9221
:10574000FF920F931F93CF93DF93CDB7DEB7CD5466
:10575000D1090FB6F894DEBF0FBECDBF8091D01235
:10576000807723968FAF2397882389F020E030E05D
:10577000A9016091A7117091A8118091A911909130
:10578000AA110E940465882311F40C9471342091AD
:10579000A7112F8B3091A811388F4091A911498FF3
:1057A0005091AA115A8F8091B7118B839091B811A3
:1057B0009D83A091B911AE83B091BA11BC830091C1
:1057C000A3111091A411E091A511E987F091A61100
:1057D000FD87209196113091971140919811509129
:1057E00099112DA33EA34FA358A7309192113DAF1D
:1057F000409193114EAF509194115FAF80919511EC
:1058000021968FAF219720919E1130919F11409149
:10581000A0115091A1112DAB3EAB4FAB58AF3091C1
:10582000381122963FAF2297409113114BA7509108
:10583000EB1024965FAF24978091EA108B8F9091A4
:10584000070E25969FAF2597A0918E11B0918F11CD
:10585000BA8BA98B20919A1130919B1140919C1188
:1058600050919D1129AF3AAF4BAF5CAF3091AF1162
:105870003B8B4091B0114C8B5091B1115D8B80915D
:10588000B2118E8B9091AB119C8FA091AC11AD8F0A
:10589000B091AD11BE8FE091AE11EF8F3090B3118A
:1058A0002090B411F091B511F9832091B6112A839B
:1058B000809112115BA5851709F4F4C649895A89AC
:1058C000452B09F033C224965FAD24978B8D581772
:1058D00009F478C7A82EB12CA9E2AA9DC001AB9DFE
:1058E000900D1124FC01E85FF14FFA8BE98B809158
:1058F0009111882319F010929111BCC080919011E0
:105900008F5F853019F08093901102C01092901132
:10591000E091901121E12E9FF0011124E75CFE4EF1
:1059200089E28A9DA0018B9D500D1124485F514F43
:105930007A01DA018C91808311964D915D916D9180
:105940007C911497DB01CA0123E0880F991FAA1FDD
:10595000BB1F2A95D1F781839283A383B483D70198
:1059600015964D915D916D917C911897DB01CA015F
:1059700033E0880F991FAA1FBB1F3A95D1F7858383
:105980009683A783B087D70119964D915D916D914C
:105990007C911C97DB01CA0143E0880F991FAA1F65
:1059A000BB1F4A95D1F781879287A387B487D70118
:1059B0001D966D917D918D919C9150978B019C01CD
:1059C00053E0000F111F221F331F5A95D1F705878F
:1059D00016872787308B0E94A4656DAF7EAF8FAF8F
:1059E00021969FAF2197F70125A136A147A150A588
:1059F0000E940B656DA37EA38FA398A79B01AC01AA
:105A000060E070E080EA9FE30E940B6569AF7AAFC7
:105A10008BAF9CAF2396FFAD2397FF23D1F02B894B
:105A20003C894D895E896B897C898D899E890E941C
:105A30005D67D70151966D937D938D939C93549799
:105A4000BB89BF8BEC89E88FFD89F98F2E892A8F5E
:105A50000DC0D70151966D917D918D919C91549778
:105A60000E94EA676F8B788F898F9A8F1DAA1EAA72
:105A70001FAA18AE29E22A9DF0012B9DF00D1124DA
:105A8000E85FF14FFE87ED87C1A0D2A0E3A0F4A0AC
:105A9000A701960160E070E080E09FE30E940B6543
:105AA00069877A878B879C8723963FAD239733231B
:105AB000F1F142E04093A211AD85BE8595964D90DF
:105AC0005D906D907C90989751968D909D90AD9043
:105AD000BC905497A50194010E945D679B01AC01A5
